:1000000000000220F56801001D6901001F69010060
:100010002169010023690100256901000000000039
:10002000000000000000000000000000276901003F
:1000300029690100000000002B6901002D69010001
:100040002F6901002F6901009567010059670100C0
:100050006D6701002F6901000D520100456F01001D
:100060003163010039630100416301002F69010020
:100070002F6901002F6901002F6901002F6901001C
:100080002F6901002F6901002F6901002F6901000C
:100090002F6901002F6901002F6901002F690100FC
:1000A0002F6901002F6901004963010051630100BC
:1000B0002F6901002F69010000000000000000000E
:1000C0002F6901002F6901002F690100816701007C
:1000D0002F6901002F6901002F6901002F690100BC
:1000E000BD670100000000000000000000000000EB
:1000F000000000002F69010000000000A967010056
:1001000000000000000000000000000000000000EF
:1001100000000000000000000000000000000000DF
:1001200000000000000000000000000000000000CF
:1001300000000000000000000000000000000000BF
:1001400000000000000000000000000000000000AF
:10015000000000000000000000000000000000009F
:10016000000000000000000000000000000000008F
:10017000000000000000000000000000000000007F
:10018000000000000000000000000000000000006F
:10019000000000000000000000000000000000005F
:1001A000000000000000000000000000000000004F
:1001B000000000000000000000000000000000003F
:1001C000000000000000000000000000000000002F
:1001D000000000000000000000000000000000001F
:1001E000000000000000000000000000000000000F
:1001F00000000000000000000000000000000000FF
:100200007CB0EE877CB0EE87FF00FF00FF00FF00B0
:10021000FF00FF00FF00FF00FF00FF00FF00FF00E6
:10022000FF00FF00FF00FF00FF00FF00FF00FF00D6
:10023000FF00FF00FF00FF002DE9F04F85B00391A4
:100240000778A7F10903042B044607F07F0200F1A9
:100250000100F5D9202AF3D02B2F04BF677804467C
:100260002D2F72D09FED427B8DED007B4FF000086B
:100270004FF000098FB34FF0000E4FF0000ADFF887
:1002800000B1754619E019F0A3FC80468946304656
:1002900019F038FC42464B4619F0E8FA52468046BF
:1002A00089465B46DDE9000135B319F0BBFDCDE9B8
:1002B0000001AE4614F8017F7FB1A7F13006092E88
:1002C00052465B4640464946DDD9C5B92E2F16D168
:1002D00014F8017F0125002FEFD142464B46DDE99E
:1002E000000119F075FC80468946039B404649464B
:1002F0001C6005B0BDE8F08F4FF0010EDAE7BEF1EB
:10030000000F29D042464B46DDE9000119F060FCA0
:1003100007F0DF07452F80468946E6D10399601C28
:100320000A2219F087FA16490246002019F0B0FF98
:1003300002460B464046494619F04AFC804689462B
:100340004046494605B0BDE8F08F9FED0B7B6778CE
:100350008DED007B013489E7DFF828904FF000082D
:100360004046494605B0BDE8F08F00BFAFF30080BE
:10037000000000000000F03F000000000000F0BF9F
:10038000000024400000F87F2DE9F84F16460023B6
:10039000002204460D4619F08DFE002840F09D8095
:1003A000002200232046294619F07AFE28B1302287
:1003B000002332707370BDE8F88F2046294617F08D
:1003C00009FF19F0B5FE7BA3D3E900238146294636
:1003D000204619F06FFE002800F08680B9F1000F6A
:1003E000C0F2BE804A4600206F4919F051FF024614
:1003F0000B462046294619F015FD04460D4666A118
:10040000D1E9000101274FF0000822462B4619F0E0
:10041000DFFB0022654B19F029FA19F075FF002F58
:10042000CC464FF0FF3AC1464FF0000840F38580BC
:10043000DFF888E15E4C0122AEF1700945F6F32544
:100440004FF02E0BA94208BFA0424FF0300309D352
:10045000001B61EB0501A94208BFA04203F10103A3
:10046000F6D2DBB2337050EA010306F1010409D180
:10047000BA4210DACE4502F101020CD026467EE8DF
:100480000245DFE7BA4204BF86F801B0B41CCE458E
:1004900002F10102F2D1B8F1000F0DD02246302155
:1004A00002F8011BC2F1010353442344002BF7DC83
:1004B0002AEAEA7301331C44BCF1010F4CD06523D6
:1004C000BCF1000F2370C5BF2B236370611CA11CFE
:1004D0006046BDE8F84F0FF019BB05F100431D461B
:1004E0002D23337001365BE72DA3D3E9002320468B
:1004F000294619F0FDFD00287FF470AFB9F10E0F09
:1005000009F101073DDDA9F10E0842460020264908
:1005100019F0BEFE02460B462046294619F082FC21
:100520000022224B19F0A2F919F0EEFE002FA9F1DA
:100530000F0A4FF0010C3FF77BAF334630222E24D9
:1005400003F8022B74707FEA090618D01E4403F8E2
:10055000012BB342FBD16BE700232370BDE8F88F7A
:10056000C9F100020020104919F092FE02460B4624
:100570002046294619F02CFB04460D463FE71E464F
:1005800056E7C9F10E0200200749C84619F080FE5F
:100590004FF0010939E700BF0000901EC4BCD642ED
:1005A00050EFE2D6E41A4B44000024400000E03F44
:1005B00000407A108DEDB5A0F7C6B03E10AE010038
:1005C00070B54FF0FF3006F035FA04466FF07F400B
:1005D00006F030FA0646204619F084FA00220C4B49
:1005E00019F0F6FA044630460D4619F07BFA06A3D8
:1005F000D3E9002319F016FC02460B462046294693
:1006000019F034F970BD00BF0000E0DFFFFF6F4359
:100610000000F03D000000002DE9F04F2DED028BB1
:10062000044683B0C06819F06DFA80462069894697
:1006300019F068FA824660698B4619F063FA02463F
:1006400001F1004306460F464046494617F06EFC4E
:1006500019F0B6FDE062054617F01CFB0190284634
:1006600017F0CCFA019B0546184619F05DFA424690
:100670004B4619F0ADFA80462846894619F054FADF
:1006800032463B4619F0A4FA02460B46404649461C
:1006900019F0EAF802460B465046594617F046FC58
:1006A00019F08EFD002208EE100A0023304639466C
:1006B00019F01EFD28B3B5EEC08AF1EE10FA1CDD6C
:1006C00011A7D7E9006718EE100A19F02DFA0246B3
:1006D0000B463046394619F0C7F832463B4619F00A
:1006E000C5F819F06DFDA062E38843F00203E380D2
:1006F00003B0BDEC028BBDE8F08F05A7D7E900671A
:10070000E1E784ED0A8AEFE7EA2E4454FB21F93F42
:10071000EA2E4454FB21F9BF08B510F0E5FCDFEDEB
:100720000C7A07EE100A67EE277A17EE900A19F096
:10073000FBF905A3D3E9002319F074FB19F0F8FCC9
:1007400008BD00BFAFF30080EA2E4454FB211940DE
:100750000000B4430000000008B510F0D9FCDFED44
:100760000C7A07EE100A67EE277A17EE900A19F056
:10077000DBF905A3D3E9002319F054FB19F0D8FCE9
:1007800008BD00BFAFF30080EA2E4454FB2119409E
:100790000000B44300000000494A21F000439342A6
:1007A0002DE9704304460D464BDC464A93420E4603
:1007B0000EDC3FA3D3E9002319F058F80022424B86
:1007C00019F096FC00284CD020462946BDE87083DD
:1007D0003E4A93423BDCB3F1804F42DD17F0F4F820
:1007E0002246804689462B462046294619F0F0F9D4
:1007F0000022354B19F03AF817F0AAFF02460B46D3
:100800004046494619F032F802460B4600202E4970
:1008100019F008FB424604460D464B464046494601
:1008200019F024F802460B462046294619F01EF816
:1008300002F06AF8002EC9DC01F100431946BDE858
:10084000708302460B4619F011F8BDE8708317F06B
:10085000BBF802F059F818A3D3E9002319F006F801
:10086000E8E722462B462046294619F0B1F9804692
:1008700089462046294617F0A7F8002204460D466F
:10088000114B4046494618F0F1FF17F061FF002276
:100890000D4B18F0EBFF02460B464046494619F057
:1008A000C1FA22462B4618F0E1FF00F0C5FAC1E775
:1008B0009C7500883CE4377EEF39FAFE422EE63F15
:1008C000FFFFEF7FFFFF2F3E0000F03F0000B04131
:1008D0002DE9F84FC44B21F000469E4204460D46D8
:1008E0008A460EDDC14B9E4200F3AC8000F0A7802B
:1008F000BAF1000F40F3EA809FA1D1E90001BDE801
:10090000F88FBB4B9E4200F3B580A3F1DE739E428D
:1009100040F3A0804FF0FF3B22462B46204629465D
:1009200019F056F902460B468046894619F050F9EF
:1009300093A3D3E9002306460F4619F049F992A381
:10094000D3E9002318F092FF32463B4619F040F9F4
:100950008FA3D3E9002318F089FF32463B4619F0F4
:1009600037F98DA3D3E9002318F080FF32463B46C8
:1009700019F02EF98AA3D3E9002318F077FF324645
:100980003B4619F025F988A3D3E9002318F06EFF40
:1009900042464B4619F01CF985A3D3E90023804653
:1009A00089463046394619F013F983A3D3E9002369
:1009B00018F05AFF32463B4619F00AF980A3D3E9F2
:1009C000002318F051FF32463B4619F001F97EA38F
:1009D000D3E9002318F048FF32463B4619F0F8F8F7
:1009E0007BA3D3E9002318F03FFF32463B4619F0C2
:1009F000EFF8BBF1FF3F02460B466CD0404649463C
:100A000018F034FF22462B4619F0E2F8794E7A4B63
:100A10004FEACB0B5E449B44DBE9002318F024FF34
:100A200022462B4618F020FF02460B46D6E900016D
:100A300018F01AFFBAF1000F43DBBDE8F88F002869
:100A40003FF456AF22462B462046294618F00EFFAB
:100A5000BDE8F88F60A3D3E9002318F007FF002258
:100A6000664B19F045FB00283FF454AF2046294659
:100A7000BDE8F88F16F0A8FF614B9E4204460D4674
:100A800039DCA3F550239E425EDC02460B4618F08B
:100A9000EDFE0022594B18F0E7FE002206460F46F5
:100AA0004FF080432046294618F0E0FE02460B46F0
:100AB0003046394619F0B6F94FF0000B04460D46A2
:100AC0002AE701F100431946BDE8F88F44A1D1E9B6
:100AD0000001BDE8F88F4046494618F0C7FE22469F
:100AE0002B4619F075F802460B462046294618F0A9
:100AF000BBFEBDE8F88F434B9E421ADC0022424BFE
:100B000018F0B2FE002206460F463F4B204629460B
:100B100019F05EF80022394B18F0A8FE02460B4689
:100B20003046394619F07EF94FF0020B04460D4667
:100B3000F2E602460B460020344919F073F94FF0F3
:100B4000030B04460D46E7E600222C4B18F08CFE02
:100B5000002206460F46294B2046294618F086FEFD
:100B600002460B463046394619F05CF94FF0010B4E
:100B700004460D46D0E600BF182D4454FB21F93F32
:100B800011DA22E33AAD903FEB0D76244B7BA93F7F
:100B9000513DD0A0660DB13F6E204CC5CD45B73F4D
:100BA000FF8300922449C23F0D5555555555D53FF9
:100BB0002F6C6A2C44B4A2BF9AFDDE522DDEAD3FED
:100BC0006D9A74AFF2B0B33F711623FEC671BC3F8D
:100BD000C4EB98999999C93F9C7500883CE4377E8D
:100BE000182D4454FB21F9BFFFFF0F440000F07F94
:100BF000FFFFDB3F20AE010040AE01000000F03FF0
:100C0000FFFFF23FFF7F03400000F83F0000F0BF0E
:100C10002DE9F843C1F30A59A9F2FF35132D024615
:100C20000B460C4606468846074622DC002D50DB64
:100C3000DFF8F09049FA05F901EA090E5EEA0606C6
:100C40001CD036A3D3E9002318F010FE00220023A5
:100C500019F04EFA48B1002C04DD4FF4801343FA2A
:100C600005F5A84428EA0904002721463846BDE8CE
:100C7000F883332D06DDB5F5806F3DD0104619465B
:100C8000BDE8F883A9F213494FF0FF3E2EFA09F9A7
:100C900010EA090FF2D021A3D3E9002318F0E6FDF2
:100CA0000022002319F024FA0028DED0002C09DDF0
:100CB000142D2BD00127C5F1340507FA05F5AE191F
:100CC00028BFB844444626EA090721463846BDE80D
:100CD000F88312A3D3E9002318F0C8FD00220023F3
:100CE00019F006FA0028C0D0002C0BDB54EA0607E6
:100CF00006D00027084CB8E718F0B8FDBDE8F88327
:100D00003C46B2E700274FF00044AEE704F101088B
:100D1000D8E700BFAFF300800000F03F9C7500886B
:100D20003CE4377EFFFF0F002DE9F041C1F30A5785
:100D3000A7F2FF35132D02460B460C4688460646A1
:100D40001CDC002D3FDB3A4F2F41864601EA070CA1
:100D50005CEA0E0E17D034A3D3E9002318F086FD09
:100D60000022002319F0C4F920B1002C3FDB28EA4F
:100D70000704002621463046BDE8F081332D06DD0C
:100D8000B5F5806F2FD010461946BDE8F081A7F267
:100D900013474FF0FF3E2EFA07F73842F3D022A355
:100DA000D3E9002318F062FD0022002319F0A0F916
:100DB0000028DFD0002C20DB444626EA0706214627
:100DC0003046BDE8F08118A3D3E9002318F04EFDAA
:100DD0000022002319F08CF90028CBD0002C17DB5F
:100DE00000263446C6E718F041FDBDE8F0814FF417
:100DF000801343FA05F5A844B9E7142D10D0012358
:100E0000C5F1340503FA05F5AE1928BF9844D3E7B8
:100E100024F00042074B324318BF1C460026A9E7C6
:100E200004F10108C8E700BF9C7500883CE4377EE8
:100E3000FFFF0F000000F0BF2DE9F04FD84B9942A3
:100E400087B0804689460E4613DCD64B21F000441D
:100E50009C4218DD0022D44B19F022F9002879D0E9
:100E6000002200230020D14918F0DCFF07B0BDE8C4
:100E7000F08FCF4B99422FDD42464B4618F0F6FCDF
:100E800007B0BDE8F08FCB4B9C4270DDCA4B1E44CF
:100E90009E427ED80022C94B4046494618F0E6FCE7
:100EA0004FEA215AAAF2FF3ABAF1000F04460D4662
:100EB0000E4640F3DE8142464B4618F0D5FC024612
:100EC0000B460020BD4918F0CFFC22462B4618F0F7
:100ED000A9FFCDE902010BE0B94B9E42DADD9FED9F
:100EE0009A7B8DED027B4FEA265A4446AAF2FF3ADE
:100EF000B44BC6F313069E4246F07F5500F3E780DD
:100F000045F44015204629460022AC4B18F0ACFCB5
:100F1000002204460D46AC4B18F05AFE22462B46E2
:100F200018F056FEA046CDE90401A946CDE900011E
:100F3000002E3AD1002200232046294619F0B0F8AD
:100F4000002800F0CE80BAF1000F40F0748100203C
:100F5000002195E742464B464046314618F084FC56
:100F600002460B4618F05EFF07B0BDE8F08F002286
:100F7000964B18F07BFC0022002319F0B9F80028EA
:100F800000F0CC80924B9C4200F3C880404649461A
:100F900076E700228C4B18F01BFE42464B4618F0B9
:100FA00017FECDE900014FF0000A00224FF0804308
:100FB0004046494618F05AFC02460B464046494610
:100FC00018F030FF02460B4606460F4618F000FEAA
:100FD0005FA3D3E9002304460D4618F0F9FD5EA394
:100FE000D3E9002318F042FC22462B4618F0F0FD0E
:100FF0005BA3D3E9002318F039FC22462B4618F0F6
:10100000E7FD59A3D3E9002318F030FC22462B4614
:1010100018F0DEFD56A3D3E9002318F027FC224682
:101020002B4618F0D5FD54A3D3E9002318F01EFC7D
:1010300022462B4618F0CCFD51A3D3E9002318F02B
:1010400015FC22462B4618F0C3FD04460D46BAF1A6
:10105000000F00F0BF80504618F054FD4AA3D3E9BA
:10106000002382468B4618F0B3FDDDE90023CDE96D
:1010700004012046294618F0F9FB32463B4618F099
:10108000A7FD43A3D3E9002304460D465046594625
:1010900018F09EFDDDE9022318F0E8FB02460B463E
:1010A0002046294618F0E2FB02460B46DDE9000126
:1010B00018F0DAFB42464B4618F0D6FB02460B46C8
:1010C000DDE9040118F0D0FB07B0BDE8F08F45F46E
:1010D0000015C6F5801620462946B6100AF1010A09
:1010E00012E72DA3D3E900232046294618F070FD0E
:1010F00002460B460020314918F0B6FBDDE9042317
:1011000018F066FD06460F46BAF1000F73D102468D
:101110000B462046294618F0A7FBB1E642464B464F
:101120004046494618F054FD0022274B18F050FD68
:1011300002460B464046494618F096FB07B0BDE80C
:10114000F08F00BFAFF3008000000000000000003F
:1011500044523EDF12F1C23F9FC678D0099AC33F86
:10116000DE03CB966446C73FAF788E1DC571CC3F7A
:10117000599322942449D23F04FA97999999D93FD7
:10118000935555555555E53F0000E0FE422EE63F8C
:10119000763C7935EF39EA3D555555555555E53F7E
:1011A0007982DA3FFFFFEF3F0000F0BF000050C33D
:1011B000FFFFEF7FFFFF1F3E3C412D400000F03F4F
:1011C000FFFF3F439DA006000000E03F00005043AA
:1011D000FFFF8F3CDDE9004522462B4618F046FB19
:1011E00032463B4618F0F4FC02460B4620462946A0
:1011F00018F03AFB9CE7504618F084FC23A3D3E98F
:10120000002382468B4618F0E3FC22A3D3E9002397
:10121000804689465046594618F0DAFCDDE902233B
:1012200018F024FB02460B463046394618F01CFBEA
:1012300022462B46DCE7504618F064FC15A3D3E9A0
:10124000002306460F4618F0C3FCDDE9022318F020
:101250000DFB0EA3D3E9002304460D463046394664
:1012600018F0B6FC02460B462046294618F0FEFA56
:1012700006E60022044B18F0F7FA02460B464046F9
:10128000494618F0F1FA20E60000F03F0000E0FEC9
:10129000422EE63F763C7935EF39EA3D000000000A
:1012A00008B516F017FF04A3D3E9002318F0BAFD20
:1012B00008BD00BFAFF30080EF39FAFE422EE63FD3
:1012C0002DE9F043DFF8B4808BB004460D4601F001
:1012D000F3F898F90030013306460F462BD022462A
:1012E0002B462046294618F00DFF814618BB2046A4
:1012F000294616F069FB1FA3D3E9002318F0F8FE76
:10130000C8B1194A98F90030CDF820900321CDE9F1
:101310000445CDE902458DE806008BB9134B4FF02B
:101320006042CDE90623684618F0A0F870B1089B2A
:101330009BB9DDE90667304639460BB0BDE8F0835E
:101340000B490020022BCDE90601ECD118F01AFA66
:1013500022230360089B002BEBD018F013FA089BA4
:101360000360E6E7AFF300802CC10100FFFFEF4709
:101370000000F07F7DF8B98FCE338640FF0100205A
:101380002DE9F043DFF8E4808BB004460D4601F010
:1013900043F998F90030013306460F4633D0204612
:1013A000294618F05DF870B32CA3D3E9002320463A
:1013B000294618F09DFE814650BB2AA3D3E900239D
:1013C0002046294618F076FEE8B198F90030204A08
:1013D000CDF82090002600270421022BCDE90445FA
:1013E000CDE90245CDE906678DE8060029D06846BB
:1013F00018F03CF828B3089B1BB118F0C3F9089B00
:101400000360DDE90667304639460BB0BDE8F0837E
:101410000F4A98F90030019203210022CDE90445DA
:10142000CDE90245009108922BB90A4B4FF060427A
:10143000CDE90623DBE708490020022BCDE90601B0
:10144000D5D118F09FF922230360D4E7AFF30080D1
:1014500034C10100FFFFEF470000F07FEF39FAFED3
:10146000422E864051302DD5104987C0FF01002003
:101470002DE9F04FDFF80C938DB006460F46144669
:101480001D4601F0C5FC99F90080B8F1FF3FCDE998
:10149000000136D022462B462046294618F032FE5F
:1014A000834670BB32463B463046394618F02AFE2A
:1014B0008246002840F0A2803046394600220023B0
:1014C00018F0EEFD10B3002200232046294618F044
:1014D000E7FD834600286AD09FEDA17B0122A44B43
:1014E000CDF828A00292CDE90467CDE906458DED3F
:1014F000087B0393B8F1000F45D09FED9B7B8DEDEA
:10150000007BDDE900010DB0BDE8F08FDDE90001F1
:1015100017F0A6FF8046002800F08D804FF0000AEB
:101520004FF0000BDDE9000152465B4618F0B8FDB4
:101530000028E6D03046394617F092FF0028E0D068
:101540002046294617F08CFF0028DAD099F90030A0
:10155000874A039204210022022BCDE90467CDE9DA
:101560000645CDE908AB02910A9203D002A817F014
:101570007DFF68B918F006F92223036008E09FEDAB
:10158000787B8DED087B02A817F070FF002830D023
:101590000A9B1BB118F0F6F80A9B03609DED087BCF
:1015A0008DED007BDDE900010DB0BDE8F08F204638
:1015B000294617F055FF0028A3D00022002320461B
:1015C000294618F077FD00289BD099F90030684A29
:1015D000CDF828B00121CDE90467CDE90645029197
:1015E0000392002BCBD063490020022BCDE90801E8
:1015F000C9D118F0C7F821230360C9E700220023EE
:101600002046294618F04CFD00283FF47AAF5A4B8B
:101610005749CDF828B000220120B8F1020FCDE9DA
:1016200004670290CDE90645CDE908230391AAD1CC
:10163000CDE9002365E73046394617F011FF002851
:101640003FF46CAF2046294617F00AFF00283FF40C
:1016500065AFDDE900231046194618F053FD002858
:101660005FD1032399F900800293414B0A90CDE9A1
:101670000467CDE906450393B8F1000F2BD1DFF8DD
:1016800008B14FF0604A0022002330463946CDE9C8
:1016900008AB18F00FFD00283FF468AF0022374B6D
:1016A0002046294618F094FA04460D4617F0E6FE47
:1016B00002460B462046294618F0F2FC70BB304B20
:1016C00099F900804FF06042CDE90823B8F1020F8C
:1016D0007FF44CAF4EE7DFF8B4B04FF0000A0022C1
:1016E000002330463946CDE908AB18F0E3FC00286A
:1016F000ECD00022214B2046294618F069FA044616
:101700000D4617F0BBFE02460B462046294618F050
:10171000C7FC18B9174B0022CDE9082399F90080BE
:10172000D4E799F90090124BCDF828800122CDE939
:101730000467CDE9064502920393B9F1000F3FF427
:101740001EAF002200231046194618F06BFBB9F1BA
:10175000020FCDE908013FF44CAF14E7AFF300806E
:101760000000000000000000000000000000F03F4A
:101770004CC101000000F0FF0000F03F0000E03F1E
:10178000FFFFEFC7FF010020FFFFEF470000F07FE2
:101790002DE9F84FC44E21F00043B34204460D46F4
:1017A0000DDD03F1404303F58013034340F0B9809E
:1017B000002940F3408100200021BDE8F88FBB4E96
:1017C000B34240F3A6800029C0F2788102460B465E
:1017D0000020B74918F048F80022B64B18F0F8F985
:1017E00004460D4616F0B4FF95A3D3E900238946BD
:1017F00080462946204618F0EBF993A3D3E900234D
:1018000018F034F822462B4618F0E2F990A3D3E9F9
:10181000002318F029F822462B4618F0D9F98EA398
:10182000D3E9002318F022F822462B4618F0D0F90D
:101830008BA3D3E9002318F017F822462B4618F0A3
:10184000C7F989A3D3E9002318F010F822462B46E4
:1018500018F0BEF986A3D3E9002382468B462046C2
:10186000294618F0B5F984A3D3E9002317F0FCFF4B
:1018700022462B4618F0ACF981A3D3E9002317F0D8
:10188000F5FF22462B4618F0A3F97FA3D3E90023E6
:1018900017F0EAFF22462B4618F09AF90022844BF3
:1018A00017F0E4FF02460B465046594618F0BAFAC4
:1018B00042464B4618F08CF9002682468B4632464B
:1018C0004B463046494618F083F902460B462046FF
:1018D000294617F0C9FF324604460D464B4640469E
:1018E000494617F0C3FF02460B462046294618F02A
:1018F00099FA02460B465046594617F0B7FF324652
:101900004B4617F0B3FF02460B4617F0AFFFBDE89A
:10191000F88F694A93420EDC5DA1D1E90001BDE870
:10192000F88F02460B4617F09FFF02460B4618F051
:1019300079FABDE8F88F02460B4618F049F940A342
:10194000D3E9002306460F4618F042F93EA3D3E937
:10195000002317F08BFF32463B4618F039F93CA3C1
:10196000D3E9002317F080FF32463B4618F030F9E8
:1019700039A3D3E9002317F079FF32463B4618F02C
:1019800027F937A3D3E9002317F06EFF32463B4611
:1019900018F01EF934A3D3E9002317F067FF32468D
:1019A0003B4618F015F932A3D3E900238046894657
:1019B0003046394618F00CF92FA3D3E9002317F06D
:1019C00053FF32463B4618F003F92DA3D3E9002319
:1019D00017F04CFF32463B4618F0FAF82AA3D3E939
:1019E000002317F041FF32463B4618F0F1F8002281
:1019F0002F4B17F03BFF02460B464046494618F076
:101A000011FA22462B4618F0E3F802460B4622A1B3
:101A1000D1E9000117F028FF02460B46204629466F
:101A200017F022FF02460B4619A1D1E9000117F079
:101A30001BFFBDE8F88F1AA1D1E90001BDE8F88FBE
:101A400009F7FD0DE13D023F88B20175E0EF493F26
:101A50003B8F68B52882A43F5544880E55C1C93FC5
:101A60007D6FEB0312D6D43F555555555555C53F9F
:101A700082922EB1C5B8B33F59018D1B6C06E63F6B
:101A8000C88A599CE52A00404B2D8A1C273A0340FE
:101A9000182D4454FB21F93F075C143326A6913CD2
:101AA000182D4454FB210940FFFFEF3FFFFFDF3FAC
:101AB0000000F03F0000E03F0000603C00225C4B73
:101AC00017F0D4FE00225B4B18F082F840A3D3E954
:101AD000002304460D4618F07BF83FA3D3E900230A
:101AE00017F0C4FE22462B4618F072F83CA3D3E947
:101AF000002317F0B9FE22462B4618F069F83AA3E6
:101B0000D3E9002317F0B2FE22462B4618F060F806
:101B100037A3D3E9002317F0A7FE22462B4618F07F
:101B200057F835A3D3E9002317F0A0FE22462B4631
:101B300018F04EF8804689462046294616F008FEE1
:101B40002FA3D3E9002306460F462046294618F066
:101B50003FF82DA3D3E9002317F086FE22462B463B
:101B600018F036F82AA3D3E9002317F07FFE2246A7
:101B70002B4618F02DF828A3D3E9002317F074FEA4
:101B800022462B4618F024F80022294B17F06EFE4F
:101B900002460B464046494618F044F932463B4659
:101BA00018F016F81EA3D3E9002317F05DFE3246A5
:101BB0003B4617F05BFE02460B4617F057FE024607
:101BC0000B4619A1D1E9000117F04EFEBDE8F88FD0
:101BD00009F7FD0DE13D023F88B20175E0EF493F95
:101BE0003B8F68B52882A43F5544880E55C1C93F34
:101BF0007D6FEB0312D6D43F555555555555C53F0E
:101C000082922EB1C5B8B33F59018D1B6C06E63FD9
:101C1000C88A599CE52A00404B2D8A1C273A03406C
:101C2000075C143326A6913C182D4454FB2109402F
:101C30000000F03F0000E03F434A91422DE9F843A5
:101C400004460D4639DD414A914209DD02F17952DF
:101C5000914240DD02460B4617F008FEBDE8F883CE
:101C600001F1404202F58012024330D0B1F1804FC1
:101C70003ADC0022364B17F0F7FD02460B460446CD
:101C80000D4617F0F3FD224606460F462B4620462A
:101C9000294617F09DFF02460B463046394617F09D
:101CA000E5FD16F055FD0B4602462946204617F085
:101CB000DDFDBDE8F843FFF7BFB802460B4617F05D
:101CC000D3FD02460B4618F0ADF8BDE8F8830020BE
:101CD0000021BDE8F88300F017FE19A3D3E9002323
:101CE00017F0C4FDBDE8F88302460B4617F070FFFD
:101CF0000022174B17F0B8FD16F02AFD2246804649
:101D000089462B462046294617F0B0FD4246064636
:101D10000F464B462046294617F0A8FD02460B46C3
:101D200000200B4918F07EF80B4602463946304633
:101D300017F09AFDBDE8F84300F0E6BDAFF3008070
:101D4000EF39FAFE422EE63FFFFFEF3FFFFFAF41C4
:101D50000000F03F000000002DE9F047BE4B21F0ED
:101D60000048984584B004460D4612DD08F140480D
:101D700008F58018034658EA030321D002460B46B3
:101D800017F072FD02460B4618F04CF804B0BDE89F
:101D9000F087B24B98458A4629DCB8F1795F80F22A
:101DA000658191A3D3E9002317F060FD0022AC4BBD
:101DB00018F09EF9D8B12046294604B0BDE8F08756
:101DC0008BA3D3E9002317F003FF8BA3D3E90023F0
:101DD00006460F462046294617F0FAFE02460B46F5
:101DE0003046394617F042FD04B0BDE8F087204682
:101DF000294615F0E9FD02460B460020984917F0E8
:101E000033FD0022974B17F0E3FE7DA3D3E90023B7
:101E100004460D4617F0DCFE7BA3D3E9002317F040
:101E200025FD22462B4617F0D3FE79A3D3E90023E4
:101E300017F01AFD22462B4617F0CAFE76A3D3E907
:101E4000002317F013FD22462B4617F0C1FE74A3A2
:101E5000D3E9002317F008FD22462B4617F0B8FE01
:101E600071A3D3E9002317F001FD22462B4617F09A
:101E7000AFFE6FA3D3E90023CDE900012046294638
:101E800017F0A6FE6CA3D3E9002317F0EDFC224661
:101E90002B4617F09DFE6AA3D3E9002317F0E6FC5A
:101EA00022462B4617F094FE67A3D3E9002317F0D0
:101EB000DBFC22462B4617F08BFE694B002217F005
:101EC000D5FCCDE902012046294616F041FC664BBF
:101ED000984506460F4666DCDDE90223DDE9000190
:101EE00017F0A0FF3246CDE900013B4630463946A7
:101EF00017F0BCFC02460B46DDE9000117F068FE56
:101F00004FF00008CDE9000142463B4640463946C5
:101F100017F05EFE02460B462046294617F0A4FC49
:101F2000424604460D463B463046394617F09EFC75
:101F300002460B462046294617F074FF02460B4620
:101F400017F094FC02460B462BA1D1E9000117F0D3
:101F50008BFC02460B46DDE9000117F085FC42468A
:101F600004460D463B464046394617F07FFC024684
:101F70000B4637A1D1E9000117F076FC02460B466B
:101F80002046294617F070FC02460B4630A1D1E9E5
:101F9000000117F069FCBAF1000F3FF7F7AE01F14D
:101FA00000431946F2E6DDE90223DDE9000117F0FE
:101FB00039FF32463B4617F00BFE32463B4617F0E0
:101FC00055FC02460B4617F051FC0BA3D3E9002346
:101FD00017F04AFC02460B4605A1D1E9000117F0B3
:101FE00043FCD8E7AFF300809C7500883CE4377E63
:101FF000182D4454FB21F93F075C143326A6913C6D
:1020000009F7FD0DE13D023F88B20175E0EF493F60
:102010003B8F68B52882A43F5544880E55C1C93FFF
:102020007D6FEB0312D6D43F555555555555C53FD9
:1020300082922EB1C5B8B33F59018D1B6C06E63FA5
:10204000C88A599CE52A00404B2D8A1C273A034038
:10205000182D4454FB21E93FFFFFEF3FFFFFDF3F17
:102060000000F03F0000E03F3233EF3F02460B46F6
:1020700017F0AEFD37A3D3E9002306460F4617F04D
:10208000A7FD36A3D3E9002317F0F0FB32463B4609
:1020900017F09EFD33A3D3E9002317F0E5FB32468A
:1020A0003B4617F095FD31A3D3E9002317F0DEFB83
:1020B00032463B4617F08CFD2EA3D3E9002317F0E0
:1020C000D3FB32463B4617F083FD2CA3D3E9002314
:1020D00017F0CCFB32463B4617F07AFD29A3D3E933
:1020E0000023804689463046394617F071FD27A304
:1020F000D3E9002317F0B8FB32463B4617F068FDE2
:1021000024A3D3E9002317F0B1FB32463B4617F076
:102110005FFD22A3D3E9002317F0A6FB32463B461E
:1021200017F056FD00220A4B17F0A0FB02460B46A3
:102130004046494617F076FE22462B4617F048FDEA
:1021400022462B4617F092FB04B0BDE8F08700BF93
:102150000000F03F09F7FD0DE13D023F88B2017537
:10216000E0EF493F3B8F68B52882A43F5544880E75
:1021700055C1C93F7D6FEB0312D6D43F5555555518
:102180005555C53F82922EB1C5B8B33F59018D1B3D
:102190006C06E63FC88A599CE52A00404B2D8A1CF4
:1021A000273A0340000000002DE9F84F1D46534236
:1021B000134325F0004ADFF8E0E14AEAD3737345A0
:1021C000144606460F4647D8C0F1000848EA000802
:1021D00021F0004343EAD878F0458B463CD805F11E
:1021E000404808F5801858EA020850D04FEAA57810
:1021F00008F0020848EAD17850EA030134D052EAE4
:102200000A023CD0F24557D0734538D0A3EB0A03FD
:102210001B153C2B42DC002D70DB22462B46304642
:10222000394617F0FFFD15F0CFFBFEF751FBB8F173
:10223000010F5FD0B8F1020F4ED0B8F1000F62D09D
:1022400043A3D3E9002317F00FFB43A3D3E90023F3
:1022500017F00AFBBDE8F88F32463B462046294678
:1022600017F004FBBDE8F88FB8F1020F1AD0B8F1EF
:10227000030F10D13AA1D1E90001BDE8F88FBBF1FD
:10228000000F14DB38A1D1E90001BDE8F88FBDE8EB
:10229000F84FFEF71DBB3946BDE8F88F32A1D1E9F2
:1022A0000001C4E72CA1D1E90001BDE8F88F30A1FD
:1022B000D1E90001BDE8F88F534526D0B8F1020FEF
:1022C000F0D0B8F1030FD5D0B8F1010F4FF00000F6
:1022D00029D00021BDE8F88F1DA3D3E9002317F012
:1022E000C3FA02460B461CA1D1E9000117F0BCFA63
:1022F000BDE8F88F01F10041BDE8F88F3C338CDA7E
:102300000020002193E7BDE8F88FB8F1020F18D044
:10231000B8F1030F10D0B8F1010F08D016A1D1E920
:102320000001BDE8F88F4FF00041BDE8F88F14A11F
:10233000D1E90001BDE8F88F13A1D1E90001BDE8A2
:10234000F88F13A1D1E90001BDE8F88FAFF3008049
:10235000075C143326A6A13C182D4454FB210940E8
:10236000182D4454FB2109C0182D4454FB21F93F7A
:10237000182D4454FB21F9BF182D4454FB21E93F8B
:10238000182D4454FB21E9BFD221337F7CD902C0F0
:10239000D221337F7CD902400000F07F0000000092
:1023A00043422DE9F047034321F000463E4A46EA06
:1023B000D373934204460D4613D896423DD03B4B0F
:1023C0009E428A4617DC36A3D3E9002317F04EFA63
:1023D0000022002317F08CFEA8B320462946BDE852
:1023E000F08702460B4617F03FFA02460B4617F0FD
:1023F00019FDBDE8F0872E4B9E42354624DD33465D
:102400000246314617F032FA224606460F462B4660
:102410000020254917F028FA02460B463046394677
:1024200017F000FDFEF708FD0022224B17F0D0FB4D
:10243000BAF1000F2FDBBDE8F0870022002317F070
:10244000F1FCBDE8F087354622462B46204629465A
:1024500017F00CFA22462B4606460F4617F0B8FB3B
:102460002246804689462B4600200F4917F0FCF98A
:1024700002460B464046494617F0D4FC32463B46DE
:1024800017F0F4F9FEF7D8FC00220A4B17F0A0FB76
:10249000BAF1000FCFDA01F100431946BDE8F08729
:1024A0009C7500883CE4377E0000F03FFFFF2F3E24
:1024B000FFFFDF3F0000E03F2DE9F8434E4B21F0E6
:1024C00000449C4206460F461BDC4C4B9C4222DDDE
:1024D0004B4B9C4263DD4B4B9C427BDD4A4B9C4209
:1024E00046DD01339C4240D041A3D3E9002310468E
:1024F000194617F06DFB06460F4630463946BDE8D3
:10250000F88302460B4617F063FB06460F4630463B
:102510003946BDE8F88315F057FA02F0B1FC002205
:102520003A4B8046894617F0A1F9B4F1725F06462E
:102530000F46ECDB42464B464046494617F048FB07
:1025400032463B4604460D463046394617F08EF972
:1025500002460B462046294617F064FC00222B4B0E
:1025600017F084F906460F46D1E7294B9842BBD8AD
:102570003046394615F028FA0022264B17F028FB82
:1025800000F04AF8002204460D46224B17F020FBCB
:1025900022462B4617F01CFB06460F46B7E715F000
:1025A00013FA00F039F800221A4B06460F4617F0CE
:1025B0000FFB32463B4604460D460020154917F0F6
:1025C00031FC02460B462046294617F04FF90646D5
:1025D0000F469CE715F0F8F900F01EF800220D4BAD
:1025E00017F0F6FA06460F4691E700BFAFF30080FA
:1025F0009C7500883CE4377EFFFFEF7F422ED63F7C
:10260000FFFF3540412E8640CD3386400000F03F2D
:102610007DF8B98F0000E03F2DE9F04FB04E21F07A
:102620000042B24283B004460D464FEAD1770DD93D
:10263000AC4EB24225D9C1F31303034340F0EC8002
:102640000FB10020002103B0BDE8F08FA64B9A42E5
:1026500000F2CB80A54B9A4200F2DC808AA3D3E93A
:10266000002317F003F90022A14B17F041FD0028C9
:1026700000F006812046294600229D4B17F0F6F80F
:10268000E1E783A3D3E9002317F032FD002840F0EF
:10269000C88081A3D3E900232046294617F00AFD0C
:1026A0000028CED1934E7EA3D3E9002306EBC706C4
:1026B0002046294617F08CFAD6E9002317F0D6F801
:1026C00017F036FD064617F01DFA77A3D3E900236D
:1026D0008046894617F07CFA02460B46204629467A
:1026E00017F0C2F872A3D3E90023CDE900014046F8
:1026F000494617F06DFA82468B4652465B46DDE945
:10270000000117F0B1F804460D4622462B4620463C
:10271000294617F05DFA68A3D3E90023804689466D
:1027200017F056FA66A3D3E9002317F09DF8424646
:102730004B4617F04DFA64A3D3E9002317F096F83F
:1027400042464B4617F044FA61A3D3E9002317F041
:102750008BF842464B4617F03BFA5FA3D3E90023C0
:1027600017F084F842464B4617F032FA02460B4601
:102770002046294617F078F880468946002E58D022
:102780002046294642464B4617F022FA4246044666
:102790000D464B4600204FF0804117F065F8024689
:1027A0000B462046294617F03DFB02460B46504695
:1027B000594617F059F8DDE9002317F055F80B4694
:1027C00002464B49002017F04FF86FF47F739E428A
:1027D00051DA06F57A7601EB065100224FF0B87314
:1027E00017F0F6F903B0BDE8F08F434B9A423FF67D
:1027F00059AF424BFC002344D3E9002317F034F8CF
:102800003F4BC7F101062344CDE90001D3E900ABFA
:10281000F61B72E7002678E702460B4617F026F80B
:1028200011E719A3D3E900231046194617F0D0F990
:1028300009E702460B462046294617F0C9F900224F
:1028400006460F464FF080434046494617F00CF8C5
:1028500002460B463046394617F0E4FA22462B462C
:1028600017F002F802460B460020214916F0FCFF43
:1028700003B0BDE8F08F01EB065103B0BDE8F08F67
:10288000064642E7AFF300809C7500883CE4377E43
:10289000EF39FAFE422E864051302DD5104987C0BF
:1028A000FE822B654715F73F0000E0FE422EE63F13
:1028B000763C7935EF39EA3DD0A4BE726937663E81
:1028C000F16BD2C541BDBB3E2CDE25AF6A56113F30
:1028D00093BDBE166CC1663F3E5555555555C53F17
:1028E000412E8640FFFFEF7F422ED63FFFFF2F3E57
:1028F0000000F03F60AE0100B1A2F03F70AE0100F9
:1029000080AE0100000000002DE9F04FB1F5801FFE
:1029100085B006460F460B465ADA024621F00044BF
:10292000224300F0F8800029C0F27A810022D64BC1
:1029300017F04EF9D54A0B46934206460F466FF004
:10294000350C4ADCC3F3130505F5152E0EF6647E2F
:102950000EF4801E8EF07F5282F440121C1542EA63
:102960000507A4F2FF3464440022C94B30463946BF
:1029700004EB1E5416F078FFAB1CC3F31303022BB9
:1029800082468B464FF0000230DC002317F088FBB4
:10299000002800F0C980002C00F04B81204617F081
:1029A000B1F8A5A3D3E9002306460F4617F010F9A6
:1029B000A3A3D3E9002304460D463046394617F059
:1029C00007F902460B462046294616F04FFF0AE05B
:1029D000AE4A93424FF0000CB4DD32463B463046DF
:1029E000394616F043FF05B0BDE8F08F4FF0804345
:1029F00016F03CFF02460B465046594617F012FAB5
:102A0000064620460F4617F07DF83246CDE9000114
:102A10003B4630463946CDE9026717F0D9F8024601
:102A20000B468046894617F0D3F887A3D3E90023E5
:102A300006460F4617F0CCF885A3D3E9002316F01D
:102A400015FF32463B4617F0C3F883A3D3E90023B2
:102A500016F00CFF32463B4617F0BAF880A3D3E9D4
:102A6000002316F003FF42464B4617F0B1F87EA351
:102A7000D3E90023804689463046394617F0A8F846
:102A80007BA3D3E9002316F0F1FE32463B4617F054
:102A90009FF879A3D3E9002316F0E8FE32463B46BF
:102AA00017F096F80B4602464946404616F0DEFE01
:102AB000A5F5C223C5F5D725A3F27A4351351D43A9
:102AC000002D8046894656DD0022724B50465946FD
:102AD00017F07EF852465B4617F07AF806460F4626
:102AE000002C68D132463B464046494616F0BEFEB1
:102AF000DDE9022317F06CF802460B4630463946F2
:102B000016F0B2FE02460B465046594616F0ACFE91
:102B100005B0BDE8F08F0022002300205E4917F0C9
:102B200081F905B0BDE8F08F55A3D3E900235046E5
:102B3000594617F04DF802460B460020554916F04D
:102B400093FE524606460F465B465046594617F0DE
:102B50003FF802460B463046394617F039F806462C
:102B60000F46002C40F09A8002460B4650465946CC
:102B700016F07AFE37E7002C00F0A4802EA3D3E9EC
:102B80000023DDE9000117F023F842464B460446D6
:102B90000D465046594616F067FEDDE9022317F050
:102BA00017F827A3D3E9002306460F46DDE9000105
:102BB00017F00EF821E020A3D3E90023DDE900019E
:102BC00017F006F832463B4604460D464046494655
:102BD00016F04CFEDDE9022316F0FAFF18A3D3E944
:102BE000002380468946DDE9000116F0F1FF024628
:102BF0000B464046494616F039FE02460B46304623
:102C0000394616F031FE52465B4616F02DFE02465E
:102C10000B462046294616F027FE05B0BDE8F08F8A
:102C200002460B4616F020FE0022002317F0FAF8A9
:102C3000D9E600200021D6E60000E0FE422EE63F65
:102C4000763C7935EF39EA3D44523EDF12F1C23F1E
:102C5000DE03CB966446C73F599322942449D23F62
:102C6000935555555555E53F9FC678D0099AC33FB2
:102C7000AF788E1DC571CC3F04FA97999999D93FC9
:102C8000555555555555D53F00005043FFFFEF7F33
:102C90000000F03F0000E03F000050C3204616F067
:102CA00031FF0FA3D3E900238046894616F090FF39
:102CB0000DA3D3E9002304460D464046494616F0CD
:102CC00087FF9AE702460B465046594616F0CCFD60
:102CD000DDE9022316F07CFF14E700BFAFF30080AC
:102CE0000000E0FE422EE63F763C7935EF39EA3DC2
:102CF000B1F5801F2DE9F84304460D460B461ADA5C
:102D0000024621F00046324359D000295FDB002201
:102D10003B4B16F05DFF3B4A0D462B469342044663
:102D20006FF035010CDD22462B462046294616F071
:102D30009DFDBDE8F883334A93424FF00001F2DC79
:102D40001815A0F2FF3008444FEAD0794844C3F385
:102D5000130816F0D7FEC9F57F73033348EA03550D
:102D600006460F4620462946FFF7CEFD1EA3D3E9AF
:102D70000023804689463046394616F029FF1CA3B9
:102D8000D3E9002304460D464046494616F020FF8D
:102D900002460B462046294616F068FD16A3D3E9E5
:102DA000002304460D463046394616F011FF024610
:102DB0000B462046294616F059FDBDE8F88300224F
:102DC00000230020104917F02DF8BDE8F8830246D3
:102DD0000B4616F049FD0022002317F023F8BDE84A
:102DE000F88300BFAFF30080362BF111F3FE593D9D
:102DF0000EE526157BCBDB3F00609F501344D33F8D
:102E000000005043FFFFEF7F000050C300000000B0
:102E10002DE9F04F23F0004757EA020493B037D072
:102E2000674C21F00046A64283460D4629DC9A46AF
:102E3000964625D0A74224DC614CA74279D0002DCC
:102E400080468946CDE9002377DB0024BEF1000FE0
:102E50002CD15B4B9F4200F08B805A4B9F4261D03C
:102E6000BAF1804F00F0C383574B9A451ED1002D15
:102E70001CDB4046494613B0BDE8F04F15F068BC76
:102E800058B106F1404606F5801656EA0B0306D106
:102E90004C49002013B0BDE8F08FB742CCDD4B4861
:102EA00013B0BDE8F04F16F0E3BA0024404649469F
:102EB00014F08AFDBBF1000F19D126B1414B25F06A
:102EC00040429A4213D1BAF1000FC0F2CA83002DDA
:102ED000E0DA06F1404606F5801656EA040300F0F3
:102EE000A584012CD6D101F100431946D2E7ED0F9C
:102EF000013D54EA05034ED0354B9F426EDD03F190
:102F000004739F4240F3FE83324B9E424EDDBAF182
:102F1000000F4EDD28A3D3E900231046194616F012
:102F200057FEB7E7BAF1000FC0F252844046494657
:102F3000B0E7BEF1000F82D0A3E7274B9F4228DC09
:102F4000A3F154739F4280DD3B15A3F2FF33142B92
:102F500040F35484C3F134032EFA03F202FA03F36C
:102F60009E457FF472AF02F00102C2F102046DE7E8
:102F700006F1404303F5801353EA0B0388D0154B49
:102F80009E4240F33B83BAF1000F12DBDDE9000102
:102F900080E702245AE742464B461046194616F08F
:102FA00063FC02460B4616F03DFF73E7BAF1000FD3
:102FB000B0DB002000216DE79C7500883CE4377E83
:102FC0000000F07F0000F03F0000E03FACB60100E1
:102FD0000000E041FFFFEF3FFFFF3F43B6F5801FDA
:102FE0004FF0000205DAD84B16F0F2FD6FF0340214
:102FF0000E463315D54FC6F31306A3F2FF33134421
:1030000046F07F5ABE421A460D934AF4401A40F3E6
:103010002F83CF4B9E4240F30D849FEDB57B8DED0A
:10302000087B8DED0E7B9FEDB47B13468DED067B0B
:1030300001330D93AAF5801A0027DDE906235146D6
:10304000CDE90A0116F010FCDDE906238046894629
:10305000DDE90A0116F00AFC02460B460020BD49D4
:1030600016F0E0FE0A460146CDE910121346494625
:103070000246404616F0ACFD4FEA6A0343F00053A7
:103080008C46834603F50023CDE904BCDA468B4623
:10309000D9190023CDE902AB0293DDE902AB002090
:1030A00006460F4602460B465046594616F090FD1E
:1030B00002460B464046494616F0D6FBDDE906239C
:1030C000804689463046394616F0CEFB02460B460E
:1030D000DDE90A0116F0C8FB52465B4616F078FDA2
:1030E00002460B464046494616F0BEFBDDE910237A
:1030F00016F06EFDDDE90467CDE9060132463B4678
:103100003046394616F064FD7DA3D3E90023064618
:103110000F4616F05DFD7CA3D3E9002316F0A6FB55
:1031200032463B4616F054FD79A3D3E9002316F04E
:103130009DFB32463B4616F04BFD77A3D3E90023B7
:1031400016F094FB32463B4616F042FD74A3D3E9D9
:10315000002316F08BFB32463B4616F039FD72A376
:10316000D3E9002316F082FB3246804689463B466F
:103170003046394616F02CFD02460B46404649467D
:1031800016F026FD524606460F465B46DDE9040171
:1031900016F06CFBDDE9062316F01AFD32463B46BD
:1031A00016F064FB5246804689465B4650465946B7
:1031B00016F00EFD0022684BCDE90A0116F056FB11
:1031C00042464B4616F052FB02980F4606463246E0
:1031D0003B465046594616F0FBFC002282468B4681
:1031E0005D4B3046394616F03FFBDDE90A2316F009
:1031F0003BFB02460B464046494616F035FBDDE9EF
:10320000042316F0E5FC3246804689463B46DDE95C
:10321000060116F0DDFC02460B464046494616F014
:1032200025FB8046894602460B4650465946CDE965
:1032300004AB16F01BFBDDE902AB3DA3D3E9002391
:1032400050460F4616F0C4FCDDE90423CDE9020127
:103250003946504616F008FB02460B4640464946A2
:1032600016F002FB34A3D3E9002316F0B1FC34A31B
:10327000D3E90023804689465046394616F0A8FC1B
:1032800002460B464046494616F0F0FADDE90E23A9
:1032900016F0ECFA80460D98894616F033FC42464B
:1032A00006460F464B46DDE9020116F0DFFADDE97E
:1032B000082316F0DBFA32463B4616F0D7FA3246C0
:1032C0003B4650468B4616F0CFFADDE9082316F050
:1032D000CBFADDE9022316F0C7FA02460B46404658
:1032E000494616F0C1FA8046894637E0AFF30080C0
:1032F0000000000000000000000000000000F03F9F
:10330000EF4E454A287ECA3F65DBC9934A86CD3FCA
:1033100001411DA96074D13F4D268F515555D53FB0
:10332000FFAB6FDBB66DDB3F033333333333E33F48
:10333000000000E009C7EE3FFD033ADC09C7EE3F9D
:10334000F5015B14E02F3EBE000040438E98030061
:1033500079B60B000000F03F00000840013C54EA41
:10336000050300F079819FEDC87B8DED047BDDE9DD
:1033700000120B461446CDE9023400230293DDE926
:10338000024508462B461146224616F06DFA524673
:103390005B4616F01DFCDDE9002306460F4640465D
:1033A000494616F015FC02460B463046394616F0E3
:1033B0005DFA2246804689462B4650465946CDE95D
:1033C000008916F005FC0B46024606460F464046AD
:1033D000494616F04BFAC64B994204460D468A46BA
:1033E00040F3168101F13F4303F5E003034340F04E
:1033F000F781A7A3D3E90023DDE9000116F036FA2F
:103400003246804689463B462046294616F02CFA2D
:1034100002460B464046494616F06AFE002840F038
:10342000DF81A8464FEA28534FF48012A3F2FE33FF
:1034300042FA03F35344C3F30A52AE4DA2F2FF32F1
:103440001541C3F3130423EA05010020C2F1140B54
:1034500044F48014BAF1000F02460B4644FA0BFB09
:1034600030463946B8BFCBF1000B16F0FDF90246E5
:103470000B4606460F46DDE9000116F0F7F94FEA64
:103480000B5A0D46002484A3D3E900232046294685
:1034900016F09EFB3246804689463B46204629462A
:1034A00016F0E2F902460B46DDE9000116F0DCF900
:1034B0007BA3D3E9002316F08BFB7BA3D3E9002386
:1034C00006460F462046294616F082FB02460B466A
:1034D0003046394616F0CAF906460F4602460B46F4
:1034E0004046494616F0C2F942464B4604460D4650
:1034F00016F0BAF902460B463046394616F0B4F9D2
:103500002246804689462B462046294616F060FB17
:1035100067A3D3E9002306460F4616F059FB66A3BE
:10352000D3E9002316F0A0F932463B4616F050FBD3
:1035300063A3D3E9002316F099F932463B4616F00F
:1035400047FB61A3D3E9002316F08EF932463B46D0
:1035500016F03EFB5EA3D3E9002316F087F932464E
:103560003B4616F035FB02460B462046294616F030
:103570007BF906460F4602460B462046294616F0C2
:1035800027FB0022CDE900014FF080433046394649
:1035900016F06AF902460B46DDE9000116F042FC1E
:1035A000424606460F464B462046294616F010FB7B
:1035B00042464B4616F05AF902460B46304639460B
:1035C00016F052F922462B4616F04EF902460B46EB
:1035D0000020494916F048F98A44BAF5801FC0F224
:1035E00039815146DDE9042316F0F2FA52E44246ED
:1035F0004B464046494616F0EBFA4BE4BAF1000F51
:10360000BFF6D7ACDDE90034184604F1004141E4CF
:103610003A4B21F00048984540F3FF80384B0B446B
:1036200003430CD132463B4616F01EF902460B46C8
:10363000DDE9000116F048FD00283FF4F3AEDDE9B6
:10364000040125A3D3E9002316F0C2FA22A3D3E98B
:10365000002316F0BDFA1DE49FED217B8DED047B68
:1036600085E602460B460020234916F0DBFB2EE4DC
:103670009FED1D7B8DED087B8DED0E7B9FED027B1D
:1036800000278DED067BD8E4000000000000F03F2D
:10369000FE822B654715973C00000000432EE63F55
:1036A000EF39FAFE422EE63F396CA80C615C20BE71
:1036B000D0A4BE726937663EF16BD2C541BDBB3E38
:1036C0002CDE25AF6A56113F93BDBE166CC1663F16
:1036D0003E5555555555C53F59F3F8C21F6EA501C6
:1036E000000000000000F0BF00000000000000002B
:1036F000FFFF8F40FFFF0F000000F03FFFCB904027
:1037000000346F3F684B9E427FF750AC674B9E4240
:103710003FF7FDAB0022654B16F0A6F852A3D3E9A4
:10372000002306460F4616F053FA51A3D3E90023AF
:10373000804689463046394616F04AFA00228246CB
:103740008B465B4B3046394616F042FA02460B4632
:1037500049A1D1E9000116F087F832463B4616F040
:1037600037FA02460B460020524916F07DF83246E1
:10377000CDE902013B463046394616F029FA0246A9
:103780000B46DDE9020116F023FA3DA3D3E900233D
:1037900016F01EFA02460B465046594616F064F8DB
:1037A00002460B4606460F464046494616F05EF86E
:1037B00042464B46002082468B4616F055F802469C
:1037C0000B463046394616F04FF880468946C5E527
:1037D00042464B460020354916F024FBFFF75ABB02
:1037E000DDE9040128A3D3E9002316F0F1F926A3AB
:1037F000D3E9002316F0ECF9FFF74CBBBEF1000F44
:103800007FF453ABC3F1140347FA03F202FA03F354
:103810009F4223D07446FFF720BB264B98453FF7C5
:1038200001AEDDE90223924693462BE602460B46A3
:10383000FFF7B3BB9FED167B8DED087B9FED167BED
:103840008DED0E7B9FED167B4FF480278DED067B73
:10385000FFF7F3BB5A4601F04FFDC3E602F0010249
:10386000C2F10204FFF7F9BA000000604715F73F04
:1038700044DF5DF80BAE543E555555555555D53F73
:10388000FE822B654715F73F9C7500883CE4377E28
:103890000000004003B8E23F06D0CF43EBFD4C3EB2
:1038A000000000000000F83FFEFFEF3F0000F03F87
:1038B0000000D03F0000E03F2DE9F0479C4B21F095
:1038C00000479F4290B08046894640F38E80994BD6
:1038D0009F420C46924626DC00298BA3D3E90023A5
:1038E00040F3B08115F0C0FF934B9F4204460D4654
:1038F00000F0908086A3D3E9002315F0B5FF0246BF
:103900000B46CAE900232046294615F0ADFF80A3E7
:10391000D3E9002315F0A8FF0125CAE902012846D2
:1039200010B0BDE8F087854B9F4240F39080844BF8
:103930009F4265DC3D15A5F21645A7EB05531946D8
:103940001F46064616F0F4FB16F0DCF88046894662
:1039500042464B4630463946CDE90A8915F084FF88
:103960000022784B16F034F98946804616F0E0FBC9
:1039700016F0C8F806460F4632463B4640464946D2
:10398000CDE90C6715F070FF00226E4B16F020F9A0
:1039900000220023CDE90E0116F082FB002800F082
:1039A0006F81002330463946002216F079FB00284B
:1039B00014BF01230223644A019202212A46009186
:1039C0000AA8514600F08CFB002C054614DADAF800
:1039D0000420DAF80C3002F1004203F100434542C2
:1039E000CAF80420CAF80C3006E000200021C2E921
:1039F0000089C2E902010025284610B0BDE8F08721
:103A000002460B4615F030FF0025CAE90201CAE95B
:103A10000001F1E740A3D3E9002315F025FF40A3FF
:103A2000D3E900230D46044615F01EFF02460B465F
:103A3000CAE900232946204615F016FF38A3D3E92A
:103A4000002315F011FF0125CAE90201D4E713F0A4
:103A5000BBFF35A3D3E900238046894616F0B8F8AA
:103A600000223A4B15F002FF16F062FB054616F0F5
:103A700049F825A3D3E90023CDE9060116F0A8F8FB
:103A800002460B464046494615F0EEFE20A3D3E918
:103A90000023CDE90201DDE9060116F099F81F2D9A
:103AA00080468946CDE9048954DC294B6A1E53F8C7
:103AB00022309F424ED002460B46DDE9020115F04E
:103AC000D3FE80468946CAE9008942464B46DDE975
:103AD000020115F0C9FEDDE9042315F0C5FE002C36
:103AE000CAE9020188DA09F1004401F100436D429C
:103AF000CAF80080CAF80440CAF80800CAF80C30B6
:103B00007AE700BFAFF3008000004054FB21F93F8B
:103B10003163621A61B4D03D0000601A61B4D03DD7
:103B20007370032E8A19A33B83C8C96D305FE43FCD
:103B3000FB21E93F7BD90240FB21F93FFB213941C1
:103B4000FFFFEF7F00007041E8C101000000E03F8F
:103B500068C10100DDE90423DDE9020115F084FEFE
:103B60003F15C1F30A53FB1A80468946102BCAE958
:103B70000089AADD58A3D3E90023DDE9060116F088
:103B800027F88046894602460B46DDE9020115F01A
:103B90006BFE02460B46DDE90201CDE9082315F074
:103BA00063FE42464B4615F05FFE4DA3D3E900236A
:103BB00080468946DDE9060116F00AF842464B4682
:103BC00015F052FE0B46CDE904010246DDE908017D
:103BD00015F04AFEC1F30A53FF1A80468946312F79
:103BE000CAE900896CDD41A3D3E90023DDE90601C0
:103BF00015F0EEFFDDE9088906460F4602460B4642
:103C00004046494615F030FE02460B4640464946BE
:103C1000CDE9022315F028FE32463B4615F024FE7E
:103C200034A3D3E9002306460F46DDE9060115F06B
:103C3000CFFF32463B4615F017FE02460B46CDE954
:103C400004233AE715F012FE274B9F4204460D4627
:103C500018D01FA3D3E9002315F008FE02460B4637
:103C6000CAE900232946204615F0FEFD18A3D3E932
:103C7000002315F0FBFD4FF0FF35CAE90201BBE65A
:103C8000032398E614A3D3E9002315F0EFFD14A352
:103C9000D3E900230D46044615F0E8FD02460B4625
:103CA000CAE900232946204615F0DEFD0CA3D3E91E
:103CB000002315F0DBFD4FF0FF35CAE902019BE65A
:103CC0009DED087B8DED027BFFE600BFAFF300802A
:103CD0003163621A61B4D03D0000601A61B4D03D16
:103CE0007370032E8A19A33BFB21F93F0000002EBD
:103CF0008A19A33BC14920259A837B390000000023
:103D0000594A2DE9F84F21F00048904506460F46E4
:103D10002BDC564B0029B4BF554D564D98454FF0FE
:103D2000000410DC544B984570DC4DA3D3E900230C
:103D300015F09CFD0022514B16F0DAF9D8B130464F
:103D40003946BDE8F88F4E4B98457CDD4D4B984584
:103D500044DD013398453ED03046394640A3D3E98F
:103D6000002315F035FFBDE8F88F02460B4615F02D
:103D70007DFDBDE8F88F3046394613F025FE01F091
:103D80007FF806460F4632463B463046394615F028
:103D90006DFD324682468B463B463046394615F02D
:103DA00017FF002280468946344B3046394615F0CD
:103DB0005DFD02460B464046494616F033F8024682
:103DC0000B465046594615F04FFD22462B4615F03E
:103DD000FFFEBDE8F88F2C4B9842BDD830463946DF
:103DE00013F0F2FD0022234B15F0F2FEFEF714FC57
:103DF00006460F4602460B462046294615F0E8FEC9
:103E000032463B4615F0E4FEBDE8F88F13F0DCFDCA
:103E100001F036F81D4B984506460F46B3DD0022EB
:103E2000164B15F023FD02460B463046394615F079
:103E3000F9FF32463B4615F019FD22462B4615F098
:103E4000C7FEBDE8F88F13F0BFFDFEF7E5FB0246A5
:103E50000B462046294615F0BBFEBDE8F88F00BF93
:103E60003374AC3C1F7BAC7FFFFFEF7FFFFF35401F
:103E70000000E0BF0000E03FFFFF2F3E0000F03FEA
:103E8000412E8640CD3386407DF8B98FFFFFEF3F4E
:103E90002DE9F04F21F00048B8F1795F85B0064672
:103EA0000F4692469B466BDA16F042F9002800F066
:103EB000EA8032463B463046394615F089FE74A307
:103EC000D3E9002304460D4615F082FE72A3D3E920
:103ED000002315F0CBFC22462B4615F079FE70A38B
:103EE000D3E9002315F0C0FC22462B4615F070FEE6
:103EF0006DA3D3E9002315F0B9FC22462B4615F03B
:103F000067FE6BA3D3E9002315F0AEFC22462B46D7
:103F100015F05EFE68A3D3E9002315F0A7FC224646
:103F20002B4615F055FECDE900010022664B2046D8
:103F3000294615F04DFEDDE90023804689462046DE
:103F4000294615F045FE524604460D465B4630466E
:103F5000394615F03DFE02460B462046294615F02F
:103F600083FC02460B464046494615F07DFC02465E
:103F70000B460020554915F077FC05B0BDE8F08FE1
:103F800002460B4615F024FE41A3D3E90023044664
:103F90000D4615F01DFE40A3D3E9002315F066FC85
:103FA00022462B4615F014FE3DA3D3E9002315F05D
:103FB0005BFC22462B4615F00BFE3BA3D3E9002306
:103FC00015F054FC22462B4615F002FE38A3D3E927
:103FD000002315F049FC22462B4615F0F9FD36A3C7
:103FE000D3E9002315F042FC2B46224615F0F0FDE4
:103FF000374B9845CDE9000197DD364B984539DCC4
:10400000A8F500130022002030499046994615F08B
:104010002BFCCDE9020100222B4B2046294615F04E
:10402000D7FD42464B4615F01FFCDDE900238046D4
:1040300089462046294615F0CBFD524604460D46DA
:104040005B463046394615F0C3FD02460B46204616
:10405000294615F009FC02460B464046494615F034
:1040600003FC02460B46DDE9020115F0FDFB05B03D
:10407000BDE8F08F9FED127B4FF000088DED027BC5
:10408000DFF85490C7E71149002005B0BDE8F08F74
:10409000D43888BEE9FAA8BDC4B1B4BD9EEE213EB5
:1040A000AD529C804F7E923E9015CB19A001FA3EF6
:1040B0007751C1166CC1563F4C5555555555A53FC6
:1040C000000000000000E73F0000E03F0000F03F7C
:1040D0003233D33F0000E93F0000D23F0000000030
:1040E0002DE9F04FADF51B7D9F4CA49E9F4D54F8DC
:1040F000264007942646D41E85FB0475E417C4EBBE
:10410000A50424EAE4741D460A93631CA3EB83030D
:10411000013D02EBC30306932B460B940395651BED
:10412000F418049008911AD42C4400260027013476
:104130000DF18808DDF8949208E059F8250015F093
:10414000E1FC0135A542E8E8020108D0002DF4DACF
:10415000013530463946A542E8E80201F6D1079B11
:10416000002BC0F2DF83079B03F1010B0A9B22A9FE
:10417000DB001A4601EB03090093049B0DF5E47A7A
:1041800019460AEBCB0B01EB0208039B002BC0F294
:10419000F582049C4D460026002775E90223F4E8C9
:1041A000020115F015FD02460B463046394615F062
:1041B0005DFB444506460F46EFD1EAE80267DA4563
:1041C00009F10809E1D107990098049C009101F1D7
:1041D0008043013B9B0020441A1F83460EA80244E3
:1041E00003440C920D93009A9AA901EBC203002A92
:1041F00053E9284529DD0DF5E47A0AEBC2080DF1F3
:10420000340900225A4B2046294615F0E1FC15F0EE
:104210008FFF15F077FC0022564B06460F4615F02F
:10422000D7FC02460B462046294615F01DFB15F02B
:104230007FFF78E9022349F8040F3946304615F02C
:1042400015FBD04504460D46DBD1DDF8189020461D
:1042500029464A4601F050F800224FF07F530446A9
:104260000D4615F0B5FCFCF75FFD0022424B15F042
:10427000AFFC02460B462046294615F0F5FA0D46DE
:10428000044615F055FF804615F03CFC0B460246EF
:104290002946204615F0E8FA4B46002B06460F4605
:1042A00040F3F980009A0EA9013AC9F1180351F8B8
:1042B000225045FA03F101FA03F30EA8EB1A40F875
:1042C0002230C9F11705884443FA05F5002D6DDD4C
:1042D000009B002B08F1010840F36F820E9C002C1C
:1042E00040F01683009B012B40F38F820EAA01231E
:1042F00052F8044F002C00F08382581C0EAAC4F11F
:10430000807442F82340009A824219DD0EAA0EAC56
:1043100052F820106FF07F42511A44F82010009993
:10432000023399420CDD1046009A0EA901EB83037B
:1043300001EB82011A68821A43F8042B8B42F9D1EF
:10434000069B002B1ADD069B012B4FF0010440F069
:104350003C82009B5A1E0EAB0EA953F82230C3F3C9
:10436000160341F822303CE288C60100ABAAAA2A13
:104370000000703E0000704100002040022D15D169
:1043800032463B460020924915F06EFA06460F462B
:10439000069A8F49002000F0AFFF02460B463046D8
:1043A000394615F061FA022506460F460022002321
:1043B0003046394615F074FE002800F03782009A26
:1043C000079B501E83420FDC02F18043013B0EAA83
:1043D0000D9C02EB8303002253F80419A34242EA26
:1043E0000102F9D1002A67D1079B0EAA013B52F8BE
:1043F0002330002B40F018820C9A012352F8041944
:1044000001330029FAD0009AD31802F1010A9A4523
:1044100009933DDC009B0A990B9A0B4409990AEB1E
:104420000208994622AB08F1804803EBC9098B18B2
:10443000A59A08F1FF3802EB880872AA02EBCA0AB3
:10444000A59A02EB8303009358F8040F15F05AFB6A
:10445000039B002BE9E802014FF000064FF0000734
:1044600011DB049C4D4675E90223F4E8020115F0C6
:10447000AFFB02460B463046394615F0F7F95C456E
:1044800006460F46EFD1009B9845EAE80267DBD16C
:10449000099B0093A7E606D1009B0EAA013B52F8A8
:1044A0002350ED1512E700224A4B15F017FE0028A5
:1044B00040F06E81054679E70EA9039551F820304A
:1044C0000699CDF8248018390246009006916BB900
:1044D00000F18043013B0EA800EB830353F804096D
:1044E000013A18390028F9D000920691069A384905
:1044F000002000F001FF009B002B04460D46C0F297
:10450000F781DA0072A901EB020B06920EAA02EB08
:104510008306DFF8C4904FF000080BF1080704365B
:1045200056F8040D15F0EEFA22462B4615F050FB16
:104530004B4667E9020142462046294615F048FBF2
:104540000EAB9E4204460D46EAD14AACDDF81C9003
:1045500004944FF0000AB9F1000FC0F22B81DFF88C
:104560007C805D4618A1D1E90001002600270024C7
:1045700003E0544510DCF8E80201F5E8022315F0E9
:1045800027FB02460B463046394615F06FF90134D9
:10459000A14506460F46ECDA049B03EBCA03ABF1D8
:1045A000080BC3E9006770AB9B450AF1010AD2D141
:1045B000A49B049C032B00F28980DFE803F0C58EE6
:1045C0008E1100BFAFF3008000000040FB21F93FD7
:1045D0000000F03F0000E03F0000703EA8AE010088
:1045E000009B002B40F38181069A04EB020ADAE972
:1045F000008902F1080525440DF5987B1AED027B30
:1046000042464B4651EC170B8DED047B15F02EF90D
:1046100006460F4602460B46DDE9040115F024F973
:1046200042464B4615F022F965E902015D45B04668
:10463000B9466AE90267E1D1009B012B40F355813D
:10464000069BE518D5E9008903F1080B04EB0B0A7A
:1046500015ED027B42464B4651EC170B8DED007B6E
:1046600015F004F906460F4602460B46DDE9000147
:1046700015F0FAF84B46424615F0F8F86AE90201DF
:104680004EAB5345B046B94665E90267E0D100201C
:10469000002104EB0B0575E9022315F0E7F8AA45A4
:1046A000F9D1039B002B00F00A816268E368089F40
:1046B0002568A4683D6002F1004203F1004301F166
:1046C00000417A60FB60BC6038617961099B03F04E
:1046D00007000DF51B7DBDE8F08F069D08352544CC
:1046E0000020002175E9022315F0C0F8A542F9D198
:1046F000039B002B00F0D280089E024601F100438C
:1047000086E80C000B460246D4E9000115F0ACF82F
:10471000009B002B0BDD4CAD0124F5E8022315F0C6
:10472000A5F8009B0134A342F7DA039B13B101F112
:1047300000431946089BC3E90201099B03F00700E7
:104740000DF51B7DBDE8F08F069D0835002000218A
:10475000254475E9022315F089F8AC42F9D1039B91
:1047600013B101F100431946089BC3E90001099BFD
:1047700003F007000DF51B7DBDE8F08F0026002734
:10478000EAE80267DA4509F108097FF4FEAC1AE5A8
:10479000009B002B08F10108C8BF02253FF79EAD22
:1047A00032463B460020614915F05EF80225064678
:1047B0000F46FBE500260027EEE6069B002B27DDD3
:1047C0000024069B012B3FF4C4AD022B09D1009BB2
:1047D0005A1E0EAB0EA953F82230C3F3150341F84D
:1047E0002230022D7FF4E2AD32463B4600204F4995
:1047F00015F03AF806460F46002C3FF4D7ADC7E552
:104800000099013399427FF473AD069B002BD8DCED
:10481000022D7FF4CBAD32463B460020434915F0D4
:1048200023F806460F46C1E50123ECE53946069F0D
:1048300003957A423046CDF8248000F05DFD0022D9
:104840003B4B04460D4615F049FC002843D000229E
:10485000384B2046294615F0BBF915F069FC064691
:1048600015F050F90022324B15F0B2F902460B4612
:104870002046294614F0F8FF15F05AFC00990B4623
:1048800001331A4600933B46183306930B460EA994
:1048900041F82300134641F8236027E6089B0246AF
:1048A000C3E900010B46D4E9000114F0DDFF009BD1
:1048B000002B3FF730AF089BC3E902013DE7D4E985
:1048C0000067D4E90223089DC5E90401C5E9006732
:1048D000C5E90223FAE62946204615F029FC009A8C
:1048E0000EA941F8220001E64AAC00200021D8E6DA
:1048F000A49B032B3FF6EAAE01A252F823F000BFBF
:104900001F4900001749000017490000E94800004E
:1049100001200023F2E4002000214AACE8E6002058
:1049200000211CE70A9BDB0000934CE40000F03FF1
:10493000000070410000703E2DE9F04F21F000466C
:10494000B6F1795F85B004460D469046994604DA83
:1049500015F0EEFB002800F0858022462B4620460D
:10496000294615F035F906460F4602460B46204605
:10497000294615F02DF941A3D3E9002382468B4641
:104980003046394615F024F93EA3D3E9002314F04C
:104990006BFF32463B4615F01BF93CA3D3E90023DD
:1049A00014F064FF32463B4615F012F939A3D3E9FF
:1049B000002314F059FF32463B4615F009F937A39E
:1049C000D3E9002314F052FF0E9BCDE900019BB305
:1049D0000022294B4046494615F0FAF8DDE900234C
:1049E000CDE902015046594615F0F2F802460B4651
:1049F000DDE9020114F038FF32463B4615F0E8F8D5
:104A000042464B4614F030FF19A3D3E90023064673
:104A10000F465046594615F0DBF802460B46304625
:104A2000394614F023FF02460B462046294614F06F
:104A30001BFF05B0BDE8F08F02460B4630463946F5
:104A400015F0C6F80AA3D3E9002314F00DFF52466F
:104A50005B4615F0BDF822462B4614F007FF05B063
:104A6000BDE8F08F2046294605B0BDE8F08F00BFB5
:104A7000495555555555C53F0000E03F7CD5CF5AA7
:104A80003AD9E53DEB9C2B8AE6E55A3E7DFEB157CF
:104A9000E31DC73ED561C119A0012A3FA6F8101138
:104AA0001111813F000000002DE9F04FBE4C21F0B4
:104AB000004687B0A64282468B460F46CDE90023CA
:104AC0001BDC15F035FB002837D153461E43109BE5
:104AD0000133334300F0B381109B012B00F0C881F8
:104AE00052465B460020B14915F09CF904460D463C
:104AF0002046294607B0BDE8F08FAD4B9E421CDD35
:104B00000029C0F2A98152465B4687A1D1E9000184
:104B100014F0AAFEDDE9002304460D4684A1D1E984
:104B2000000114F0A1FE9FED847B22462B468DED03
:104B3000007B14F09BFE82468B4652465B465046F5
:104B4000594615F045F802460B468046894615F051
:104B50003FF8424604460D464B465046594615F02E
:104B600037F877A3D3E90023CDE90201204629468F
:104B700015F02EF874A3D3E9002314F077FE224633
:104B80002B4615F025F872A3D3E9002314F06EFE2E
:104B900022462B4615F01CF86FA3D3E9002314F02E
:104BA00065FE22462B4615F013F86DA3D3E90023CA
:104BB00014F05CFE22462B4615F00AF86AA3D3E9EE
:104BC000002314F053FE42464B4615F001F868A34B
:104BD000D3E90023CDE904012046294614F0F8FF6B
:104BE00065A3D3E9002314F041FE22462B4614F0BE
:104BF000EFFF63A3D3E9002314F038FE22462B46CF
:104C000014F0E6FF60A3D3E9002314F02FFE224640
:104C10002B4614F0DDFF5EA3D3E9002314F026FE3B
:104C200022462B4614F0D4FF5BA3D3E9002314F0F3
:104C30001DFE02460B46DDE9040114F017FEDDE916
:104C4000022314F0C5FFDDE9004522462B4614F08F
:104C50000DFE42464B4614F0BBFF02460B46204673
:104C6000294614F003FE4EA3D3E9002304460D4663
:104C7000DDE9020114F0ACFF22462B4614F0F6FDEC
:104C80000B460246804689465046594614F0EEFDD2
:104C9000474B9E4204460D4600F38E80109B012B2D
:104CA0003BD002460B460020404915F0BBF80024DB
:104CB00006460F462046294652465B46CDE9006728
:104CC000CDE90201009414F0CFFDDDE900AB02460E
:104CD0000B464046494614F0C7FD52465B4614F069
:104CE00077FF524604460D465B46DDE9020114F0AB
:104CF0006FFF00222F4B14F0B9FD02460B462046F1
:104D0000294614F0B3FD32463B4614F061FF52468B
:104D10005B4614F0ABFD04460D462046294607B01D
:104D2000BDE8F08FAFF30080182D4454FB21E93F1C
:104D3000075C143326A6813C000000000000000040
:104D4000D47ABF74702AFB3EE9A7F0320FB8123F45
:104D500068108D1AF726303F1583E0FEC8DB573FF9
:104D600093846EE9E326823FFE41B31BBAA1AB3FB9
:104D7000735360DBCB75F3BEA69237A0887E143FD9
:104D80000165F2F2D844433F280356C9226D6D3FB6
:104D900037D60684F464963F7AFE10111111C13F94
:104DA000635555555555D53FFFFF2F3E0000F0BFC9
:104DB0002794E53F0000F03F109814F0A3FE224630
:104DC000CDE900012B462046294614F001FFDDE91C
:104DD0000023CDE902012046294614F047FD024692
:104DE0000B46DDE9020115F01DF842464B4614F072
:104DF0003BFD02460B465046594614F035FD02462F
:104E00000B4614F033FD02460B46DDE9000114F0B9
:104E10002BFD0446B81700F00200C0F101000D465A
:104E200014F070FE02460B462046294614F0D0FED0
:104E300004460D462046294607B0BDE8F08F50468F
:104E4000594612F0C1FD02460B4600200A4914F0F3
:104E5000E9FF04460D4660E7DDE9004501F1004148
:104E6000224605F1004382468B46CDE900234AE6FF
:104E700054465D4651E700BF0000F03F00000000CF
:104E80002DE9F04FD24A21F00043934285B082468B
:104E90008B460C462DD9CF4A93421AD8002C80F26B
:104EA0001681B5A3D3E900235046594614F0DEFC21
:104EB0000022002315F0FEF8C0B9B1A3D3E9002306
:104EC0005046594614F084FE02460B460020C24963
:104ED00008E1C24A934240F2D0800346C1F3130274
:104EE000134340F0F481002980F2C4800020BC49C3
:104EF000C0E0BC4A934200F22981BB4A934240F28F
:104F0000DE80002301930022B84B5046594614F02E
:104F10005FFE06460F4602460B465046594614F0C1
:104F200057FE99A3D3E9002304460D4614F050FE22
:104F300097A3D3E9002314F099FC22462B4614F0E2
:104F400047FE95A3D3E9002314F08EFC22462B469E
:104F500014F03EFE92A3D3E9002314F087FC22460E
:104F60002B4614F035FE90A3D3E9002314F07CFC0B
:104F700022462B4614F02CFE00229D4B14F076FCAA
:104F80008046894602460B463046394614F020FEDC
:104F900002460B460020974914F066FC064602467E
:104FA0000B460F464046494614F05EFC32468046AA
:104FB00089463B465046594614F00AFE02460B46C7
:104FC00000208D4914F050FC02460B4640464946ED
:104FD00014F028FF22462B4614F0FAFD019E0246EB
:104FE0000B46002E38D0DDE9026732463B4614F00E
:104FF0003BFC52465B4614F0EBFD32463B4614F058
:1050000033FC2B46224614F02FFC019B013306464D
:105010000F4600F00F81019B012B00F0F180019BF6
:105020000133392B39D8019B132B40F31281019C9A
:10503000C4F57F75033500222B0514F017FC0246DA
:105040000B465046594614F00FFC0022684B14F0F2
:105050000DFC01EB04510DE05046594614F0B8FD2B
:1050600022462B4614F000FC02460B465046594699
:1050700014F0FAFB05B0BDE8F08F4DA3D3E900238F
:1050800015F036F800283FF409AF4BA3D3E900230D
:105090001046194614F09CFDECE752465B4614F0AE
:1050A000E3FB02460B460020514914F0DDFB019A58
:1050B0004F4B01EB0251002214F0D6FBDAE73EA37E
:1050C000D3E9002314F0D2FB02460B46CAE72CA317
:1050D000D3E900235046594614F07AFD0B46434964
:1050E0000246002014F0C2FB15F022F8019014F0E3
:1050F00009FD33A3D3E9002306460F4614F068FDEB
:1051000002460B465046594614F0AEFB2EA3D3E997
:105110000023804689463046394614F059FD06463C
:105120000F4632463B464046494614F09DFB024638
:105130000B4682468B464046494614F095FB324664
:105140003B4614F091FBCDE90201DCE62B4A934289
:1051500000F2958000291AA3D3E90023C0F2AC80A5
:1051600014F082FB012380468946019316A7D7E9F4
:105170000067D6E7AFF3008059F3F8C21F6EA501B0
:10518000FE822B654715F73F2DC3096EB7FD8ABE1A
:105190003952E686CACFD03EB7DBAA9E19CE143F5D
:1051A0008555FE19A0015A3FF41011111111A13FAC
:1051B000EF39FAFE422E86409C7500883CE4377E2B
:1051C0000000E0FE422EE63F763C7935EF39EA3DBD
:1051D00079684340412E86400000E0BFFFFFEF7F2B
:1051E0000000F0BF422ED63FFFFF8F3C0000E03FA3
:1051F0000000F03F0000084000001840B1A2F03F5E
:105200000022394B5046594614F054FF002844D030
:10521000504659460022354B14F028FB02460B46F7
:105220003046394614F020FB00224FF0404314F082
:10523000CFFC1FE702460B465046594614F014FBBC
:1052400000222A4B14F0C4FC0022284B14F00CFB63
:1052500010E7019C4FF400132341C3F17F575246DE
:105260005B4614F001FB002607F5401702460B468B
:105270003046394614F0F8FA01EB0451FAE616A369
:10528000D3E9002314F0A4FC002C02460B464FF097
:105290000000FFF61CAE154924E732463B46504657
:1052A000594614F0E1FA02460B4614F0DFFA0022E8
:1052B0000F4B14F0DBFADDE614F0D8FA4FF0FF33B1
:1052C00080468946019306A7D7E9006729E7024689
:1052D0000B4614F0CBFACDE6FE822B654715F73F5F
:1052E000763C7935EF39EABD0000D0BF0000E03FE1
:1052F0000000F03F00000000F8B5C1F30A56044674
:105300000D460B4617460EBB21F00043034386466D
:1053100025D00022344B14F05BFC344A97420446FB
:105320000D460B462ADBC1F30A56363E3E4440F298
:10533000FE72964228DC002E12DD23F0FF4323F498
:10534000E00343EA065520462946F8BD40F2FF72C5
:105350009642EBD102460B4614F088FAF8BDF8BD30
:1053600016F1350F1DDA4CF250339F4222462B4680
:1053700025DC19A1D1E9000114F0E8F916A3D3E95D
:10538000002314F025FCF8BD22462B4614A1D1E9D8
:10539000000114F0DBF912A3D3E9002314F018FC88
:1053A000F8BD23F0FF4323F4E003363643EA065505
:1053B0002046294600220E4B14F00AFCF8BD08A135
:1053C000D1E9000114F0C2F905A3D3E9002314F0D8
:1053D000FFFBF8BDAFF3008059F3F8C21F6EA501C3
:1053E0009C7500883CE4377E00005043B03CFFFFD2
:1053F0000000903C10B5054C237833B9044B13B131
:105400000448AFF300800123237010BD1005002075
:1054100000000000E0C701000C4B43B10C480D49EF
:1054200010B5AFF300800C48036823B910BD0A48DB
:10543000036833B97047094B002BF7D0BDE8104023
:105440001847064B002BF5D0184700BF000000009E
:10545000E0C7010014050020180200200000000031
:10546000154B002B08BF134B9D46A3F5803A002136
:105470008B460F461348144A121A08F02DF90F4BA9
:10548000002B00D098470E4B002B00D098470020EF
:10549000002104000D000D48002802D00C48AFF395
:1054A000008014F089F92000290005F049F914F072
:1054B0006FF900BF0000080000000220000000009B
:1054C0000000000000040020A80C002000000000E4
:1054D0000000000070B504460E4600F0D1F888B117
:1054E00003681B6B05469847082C0CD0A4F10903F0
:1054F000012B14D93246214610230D20BDE87040FF
:1055000004F0DEB870BD2B6828469B6A98470228D5
:10551000F0DC2B6828465B6A04219847EAE72B6891
:1055200028469B6A98470528E4DC2B6828465B6A76
:1055300008219847DEE700BF30B52DED028B83B020
:10554000054600F09DF8044640B103681B6B984780
:10555000032D50D8DFE805F0373F47080190019848
:1055600003B0BDEC028B30BD20460BF093FD07EE7F
:10557000900A2046F8EEE78A0BF09AFD07EE900AB3
:105580002046B8EEE78A0BF0A1FD68EE087A07EE38
:10559000100AE8EEA87AB8EEC77AE7EE077AF5EED9
:1055A000407AF1EE10FAB1EEE78A03D517EE900AD1
:1055B00012F056FFFDEEC87ACDED017A019803B0E6
:1055C000BDEC028B30BD204603B0BDEC028BBDE8C4
:1055D00030400BF05FBD204603B0BDEC028BBDE850
:1055E00030400BF065BD204603B0BDEC028BBDE83A
:1055F00030400BF06BBD00230193B0E738B5054692
:1056000000F03EF858B103681B6B0446984745B15B
:10561000012D04D12046BDE83840FBF79DB800209D
:1056200038BD2046BDE83840FBF776B810B50446D3
:1056300000F026F828B1036821465B6ABDE81040F7
:10564000184710BD0048704716FCFFFF704700BFA9
:1056500010B5034B036004460BF018FB204610BD49
:1056600088BC010010B5054B036004460BF00EFB2F
:10567000204614F0EFFF204610BD00BF88BC01009B
:105680002DE9F043C04C236885B01BB1986805B084
:10569000BDE8F0834FF0FF31012001F0FFFCC0B204
:1056A00004F000FB002800F0ED800C2014F0D4FF83
:1056B00003210646512001F0F1FCDFF8FCE2B34B78
:1056C000054605F00F07C5F3031815F4807518BFDC
:1056D0007346AF48394642460AF078FC2A1C18BF88
:1056E00001223946434630460EF0FEF90023A94810
:1056F000B3600AF06BFC4FF0FF31032001F0CEFCE9
:10570000C0B204F0CFFA4FF0FF310546022001F09D
:10571000C5FCC0B204F0C6FA002D00F09A80002843
:1057200000F097800146284604F0ACF807460028B0
:1057300000F0A4804FF0FF31462001F0AFFC32288A
:1057400080462BD028DD382869D068283FD14FF01B
:10575000FF31012001F0A2FCC0B204F0A3FA81469F
:105760005C2014F079FF0523054601934A46CDF8E5
:105770000080394633460DF089F92846B060036849
:10578000DB6A9847B06803681B6B984782480AF049
:105790001DFC2660B0687AE7302818D14FF0FF3141
:1057A000012001F07BFCC0B204F07CFA814650205D
:1057B00014F052FF1FFA88F1054605234A4600916E
:1057C0000193394633460CF033FF2846D6E73A6852
:1057D0000125002301950095D2F82480B3600F22A3
:1057E0000DF10F0332213846C047002856D14FF043
:1057F0003208414669480AF0E9FB4FF0FF310120C9
:1058000001F04CFCC0B204F04DFA8146502014F077
:1058100023FF052305464A46CDF80080D0E74FF028
:10582000FF31012001F03AFCC0B204F03BFA81469E
:10583000502014F011FF052305464A46CDF800809C
:105840003946019333460CF0FDFF554B2B6028463B
:1058500094E754480AF0BAFB4FF0FF31192001F0E9
:105860001DFCC0B204F01EFA4FF0FF3105461820AF
:1058700001F014FCC0B204F015FA53E74A480AF0EC
:10588000A5FB86E74FF0FF31032001F007FCC0B213
:1058900004F008FA00287FF408AFF8E63B680195A9
:1058A0000095D3F824800F220DF10F0330213846E4
:1058B000C04718B94FF0300841469BE73B68019557
:1058C0000095D3F824800D220DF10F0338213846BE
:1058D000C047C0B9382131480AF078FB4FF0FF319A
:1058E000284601F0DBFBC0B204F0DCF98046502012
:1058F00014F0B2FE4FF0050E3823054642463946F5
:105900008DE808409EE73A6801950095D2F824801A
:105910000DF10F03752268213846C047E0B96821B0
:105920001E480AF053FB4FF0FF31284601F0B6FB4A
:10593000C0B204F0B7F980465C2014F08DFE4FF041
:10594000050E682305468DE8084042463946334631
:105950000DF09CF8284611E714480AF037FBB068B0
:1059600000287FF40CAF4FF0FF31032001F096FBCD
:10597000C0B204F097F918B10D480AF027FB08E708
:105980000C480AF023FB04E72C05002038AF010087
:1059900040AF010060AF0100F8AF01001CB0010092
:1059A000F8AE010070AF010084AF010008B0010043
:1059B0009CAF0100D8AF010030AF010008B501F085
:1059C0009FFCFBF76DFCBDE8084001F0FDB900BF8E
:1059D00008B501F095FCFBF7D3FCBDE8084001F0E9
:1059E000F3B900BF08B501F08BFC12F063F8BDE815
:1059F000084001F0E9B900BF08B501F081FC12F0E0
:105A00006BFCBDE8084001F0DFB900BF08B501F04C
:105A100077FCFBF755FCBDE8084001F0D5B900BFA5
:105A200008B501F06DFC12F083FABDE8084001F002
:105A3000CBB900BF08B501F063FCFAF7ADFEBDE8D5
:105A4000084001F0C1B900BF08B501F059FC12F0DF
:105A5000C3F9BDE8084001F0B7B900BF70B5049EB6
:105A600096420C4628DB15466BB1002A00EB02017A
:105A700007DD2046A21811F8013D00F8013B9042D5
:105A8000F9D1002070BD042A0FD0022A02D110F0F3
:105A9000010306D001462A46204606F02DFC0020D0
:105AA00070BD02880A80184670BD10F00303F1D162
:105AB00002680A60184670BD0846002107F00CFE17
:105AC0004FF0FF3070BD00BF0830704740B1002973
:105AD00005DB4368994202DA0844007A70470020E7
