:10000000000002201D550100455501004755010023
:10001000495501004B5501004D55010000000000FD
:100020000000000000000000000000004F5501002B
:1000300051550100000000005355010055550100C5
:100040005755010057550100BD5301008153010070
:100050009553010057550100994401006D5B010063
:10006000A54F0100AD4F0100B54F010057550100EC
:1000700057550100575501005755010057550100CC
:1000800057550100575501005755010057550100BC
:1000900057550100575501005755010057550100AC
:1000A0005755010057550100BD4F0100C54F0100D4
:1000B00057550100575501000000000000000000E6
:1000C000575501005755010057550100A95301002C
:1000D000575501005755010057550100575501006C
:1000E000E5530100000000000000000000000000D7
:1000F000000000005755010000000000D15301002E
:1001000000000000000000000000000000000000EF
:1001100000000000000000000000000000000000DF
:1001200000000000000000000000000000000000CF
:1001300000000000000000000000000000000000BF
:1001400000000000000000000000000000000000AF
:10015000000000000000000000000000000000009F
:10016000000000000000000000000000000000008F
:10017000000000000000000000000000000000007F
:10018000000000000000000000000000000000006F
:10019000000000000000000000000000000000005F
:1001A000000000000000000000000000000000004F
:1001B000000000000000000000000000000000003F
:1001C000000000000000000000000000000000002F
:1001D000000000000000000000000000000000001F
:1001E000000000000000000000000000000000000F
:1001F00000000000000000000000000000000000FF
:100200007CB0EE877CB0EE87FF00FF00FF00FF00B0
:10021000FF00FF00FF00FF00FF00FF00FF00FF00E6
:10022000FF00FF00FF00FF00FF00FF00FF00FF00D6
:10023000FF00FF00FF00FF002DE9F04F85B00391A4
:100240000778A7F10903042B044607F07F0200F1A9
:100250000100F5D9202AF3D02B2F04BF677804467C
:100260002D2F72D09FED427B8DED007B4FF000086B
:100270004FF000098FB34FF0000E4FF0000ADFF887
:1002800000B1754619E018F0AFFA8046894630464D
:1002900018F044FA42464B4618F0F4F852468046AD
:1002A00089465B46DDE9000135B318F0C7FBCDE9AF
:1002B0000001AE4614F8017F7FB1A7F13006092E88
:1002C00052465B4640464946DDD9C5B92E2F16D168
:1002D00014F8017F0125002FEFD142464B46DDE99E
:1002E000000118F081FA80468946039B4046494642
:1002F0001C6005B0BDE8F08F4FF0010EDAE7BEF1EB
:10030000000F29D042464B46DDE9000118F06CFA97
:1003100007F0DF07452F80468946E6D10399601C28
:100320000A2218F093F816490246002018F0BCFD86
:1003300002460B464046494618F056FA8046894622
:100340004046494605B0BDE8F08F9FED0B7B6778CE
:100350008DED007B013489E7DFF828904FF000082D
:100360004046494605B0BDE8F08F00BFAFF30080BE
:10037000000000000000F03F000000000000F0BF9F
:10038000000024400000F87F2DE9F84F16460023B6
:10039000002204460D4618F099FC002840F09D808C
:1003A000002200232046294618F086FC28B130227E
:1003B000002332707370BDE8F88F2046294616F08E
:1003C00015FD18F0C1FC7BA3D3E900238146294623
:1003D000204618F07BFC002800F08680B9F1000F61
:1003E000C0F2BE804A4600206F4918F05DFD02460B
:1003F0000B462046294618F021FB04460D4666A10F
:10040000D1E9000101274FF0000822462B4618F0E1
:10041000EBF90022654B18F035F818F081FD002F3C
:10042000CC464FF0FF3AC1464FF0000840F38580BC
:10043000DFF888E15E4C0122AEF1700945F6F32544
:100440004FF02E0BA94208BFA0424FF0300309D352
:10045000001B61EB0501A94208BFA04203F10103A3
:10046000F6D2DBB2337050EA010306F1010409D180
:10047000BA4210DACE4502F101020CD026467EE8DF
:100480000245DFE7BA4204BF86F801B0B41CCE458E
:1004900002F10102F2D1B8F1000F0DD02246302155
:1004A00002F8011BC2F1010353442344002BF7DC83
:1004B0002AEAEA7301331C44BCF1010F4CD06523D6
:1004C000BCF1000F2370C5BF2B236370611CA11CFE
:1004D0006046BDE8F84F0FF037BA05F100431D46FE
:1004E0002D23337001365BE72DA3D3E9002320468B
:1004F000294618F009FC00287FF470AFB9F10E0FFF
:1005000009F101073DDDA9F10E0842460020264908
:1005100018F0CAFC02460B462046294618F08EFA0F
:100520000022224B17F0AEFF18F0FAFC002FA9F1C1
:100530000F0A4FF0010C3FF77BAF334630222E24D9
:1005400003F8022B74707FEA090618D01E4403F8E2
:10055000012BB342FBD16BE700232370BDE8F88F7A
:10056000C9F100020020104918F09EFC02460B461B
:100570002046294618F038F904460D463FE71E4646
:1005800056E7C9F10E0200200749C84618F08CFC56
:100590004FF0010939E700BF0000901EC4BCD642ED
:1005A00050EFE2D6E41A4B44000024400000E03F44
:1005B00000407A108DEDB5A0F7C6B03EE899010075
:1005C00070B54FF0FF3006F035FA04466FF07F400B
:1005D00006F030FA0646204618F090F800220C4B40
:1005E00018F002F9044630460D4618F087F806A3C5
:1005F000D3E9002318F022FA02460B46204629468A
:1006000017F040FF70BD00BF0000E0DFFFFF6F4349
:100610000000F03D000000002DE9F04F2DED028BB1
:10062000044683B0C06818F079F88046206989468E
:1006300018F074F8824660698B4618F06FF802462D
:1006400001F1004306460F464046494616F07AFA45
:1006500018F0C2FBE062054616F028F90190284622
:1006600016F0D8F8019B0546184618F069F842467E
:100670004B4618F0B9F880462846894618F060F8CD
:1006800032463B4618F0B0F802460B464046494613
:1006900017F0F6FE02460B465046594616F052FA3F
:1006A00018F09AFB002208EE100A00233046394663
:1006B00018F02AFB28B3B5EEC08AF1EE10FA1CDD63
:1006C00011A7D7E9006718EE100A18F039F80246AA
:1006D0000B463046394617F0D3FE32463B4617F0FC
:1006E000D1FE18F079FBA062E38843F00203E380B7
:1006F00003B0BDEC028BBDE8F08F05A7D7E900671A
:10070000E1E784ED0A8AEFE7EA2E4454FB21F93F42
:10071000EA2E4454FB21F9BF08B510F003FCDFEDCD
:100720000C7A07EE100A67EE277A17EE900A18F097
:1007300007F805A3D3E9002318F080F918F004FBAB
:1007400008BD00BFAFF30080EA2E4454FB211940DE
:100750000000B4430000000008B510F0F7FBDFED27
:100760000C7A07EE100A67EE277A17EE900A17F058
:10077000E7FF05A3D3E9002318F060F918F0E4FAC5
:1007800008BD00BFAFF30080EA2E4454FB2119409E
:100790000000B44300000000494A21F000439342A6
:1007A0002DE9704304460D464BDC464A93420E4603
:1007B0000EDC3FA3D3E9002317F064FE0022424B76
:1007C00018F0A2FA00284CD020462946BDE87083D4
:1007D0003E4A93423BDCB3F1804F42DD15F000FF0F
:1007E0002246804689462B462046294617F0FCFFC4
:1007F0000022354B17F046FE16F0B6FD02460B46BA
:100800004046494617F03EFE02460B4600202E4960
:1008100018F014F9424604460D464B4640464946F8
:1008200017F030FE02460B462046294617F02AFEF6
:1008300002F06AF8002EC9DC01F100431946BDE858
:10084000708302460B4617F01DFEBDE8708315F05D
:10085000C7FE02F059F818A3D3E9002317F012FEDF
:10086000E8E722462B462046294617F0BDFF804682
:1008700089462046294615F0B3FE002204460D465F
:10088000114B4046494617F0FDFD16F06DFD002264
:100890000D4B17F0F7FD02460B464046494618F04F
:1008A000CDF822462B4617F0EDFD00F0C5FAC1E762
:1008B0009C7500883CE4377EEF39FAFE422EE63F15
:1008C000FFFFEF7FFFFF2F3E0000F03F0000B04131
:1008D0002DE9F84FC44B21F000469E4204460D46D8
:1008E0008A460EDDC14B9E4200F3AC8000F0A7802B
:1008F000BAF1000F40F3EA809FA1D1E90001BDE801
:10090000F88FBB4B9E4200F3B580A3F1DE739E428D
:1009100040F3A0804FF0FF3B22462B46204629465D
:1009200017F062FF02460B468046894617F05CFFCF
:1009300093A3D3E9002306460F4617F055FF92A371
:10094000D3E9002317F09EFD32463B4617F04CFFDB
:100950008FA3D3E9002317F095FD32463B4617F0ED
:1009600043FF8DA3D3E9002317F08CFD32463B46AD
:1009700017F03AFF8AA3D3E9002317F083FD32462C
:100980003B4617F031FF88A3D3E9002317F07AFD27
:1009900042464B4617F028FF85A3D3E90023804643
:1009A00089463046394617F01FFF83A3D3E9002359
:1009B00017F066FD32463B4617F016FF80A3D3E9D9
:1009C000002317F05DFD32463B4617F00DFF7EA376
:1009D000D3E9002317F054FD32463B4617F004FFDD
:1009E0007BA3D3E9002317F04BFD32463B4617F0BB
:1009F000FBFEBBF1FF3F02460B466CD0404649462A
:100A000017F040FD22462B4617F0EEFE794E7A4B4A
:100A10004FEACB0B5E449B44DBE9002317F030FD2B
:100A200022462B4617F02CFD02460B46D6E9000164
:100A300017F026FDBAF1000F43DBBDE8F88F002860
:100A40003FF456AF22462B462046294617F01AFDA2
:100A5000BDE8F88F60A3D3E9002317F013FD00224F
:100A6000664B18F051F900283FF454AF2046294650
:100A7000BDE8F88F15F0B4FD614B9E4204460D466B
:100A800039DCA3F550239E425EDC02460B4617F08C
:100A9000F9FC0022594B17F0F3FC002206460F46E2
:100AA0004FF080432046294617F0ECFC02460B46E7
:100AB0003046394617F0C2FF4FF0000B04460D4692
:100AC0002AE701F100431946BDE8F88F44A1D1E9B6
:100AD0000001BDE8F88F4046494617F0D3FC224696
:100AE0002B4617F081FE02460B462046294617F09A
:100AF000C7FCBDE8F88F434B9E421ADC0022424BF4
:100B000017F0BEFC002206460F463F4B2046294602
:100B100017F06AFE0022394B17F0B4FC02460B4670
:100B20003046394617F08AFF4FF0020B04460D4657
:100B3000F2E602460B460020344917F07FFF4FF0E3
:100B4000030B04460D46E7E600222C4B17F098FCF9
:100B5000002206460F46294B2046294617F092FCF4
:100B600002460B463046394617F068FF4FF0010B3E
:100B700004460D46D0E600BF182D4454FB21F93F32
:100B800011DA22E33AAD903FEB0D76244B7BA93F7F
:100B9000513DD0A0660DB13F6E204CC5CD45B73F4D
:100BA000FF8300922449C23F0D5555555555D53FF9
:100BB0002F6C6A2C44B4A2BF9AFDDE522DDEAD3FED
:100BC0006D9A74AFF2B0B33F711623FEC671BC3F8D
:100BD000C4EB98999999C93F9C7500883CE4377E8D
:100BE000182D4454FB21F9BFFFFF0F440000F07F94
:100BF000FFFFDB3FF8990100189A01000000F03F69
:100C0000FFFFF23FFF7F03400000F83F0000F0BF0E
:100C10002DE9F843C1F30A59A9F2FF35132D024615
:100C20000B460C4606468846074622DC002D50DB64
:100C3000DFF8F09049FA05F901EA090E5EEA0606C6
:100C40001CD036A3D3E9002317F01CFC002200239C
:100C500018F05AF848B1002C04DD4FF4801343FA21
:100C600005F5A84428EA0904002721463846BDE8CE
:100C7000F883332D06DDB5F5806F3DD0104619465B
:100C8000BDE8F883A9F213494FF0FF3E2EFA09F9A7
:100C900010EA090FF2D021A3D3E9002317F0F2FBE9
:100CA0000022002318F030F80028DED0002C09DDE7
:100CB000142D2BD00127C5F1340507FA05F5AE191F
:100CC00028BFB844444626EA090721463846BDE80D
:100CD000F88312A3D3E9002317F0D4FB00220023EA
:100CE00018F012F80028C0D0002C0BDB54EA0607DD
:100CF00006D00027084CB8E717F0C4FBBDE8F8831E
:100D00003C46B2E700274FF00044AEE704F101088B
:100D1000D8E700BFAFF300800000F03F9C7500886B
:100D20003CE4377EFFFF0F002DE9F041C1F30A5785
:100D3000A7F2FF35132D02460B460C4688460646A1
:100D40001CDC002D3FDB3A4F2F41864601EA070CA1
:100D50005CEA0E0E17D034A3D3E9002317F092FB00
:100D60000022002317F0D0FF20B1002C3FDB28EA3F
:100D70000704002621463046BDE8F081332D06DD0C
:100D8000B5F5806F2FD010461946BDE8F081A7F267
:100D900013474FF0FF3E2EFA07F73842F3D022A355
:100DA000D3E9002317F06EFB0022002317F0ACFFFD
:100DB0000028DFD0002C20DB444626EA0706214627
:100DC0003046BDE8F08118A3D3E9002317F05AFBA1
:100DD0000022002317F098FF0028CBD0002C17DB4F
:100DE00000263446C6E717F04DFBBDE8F0814FF40E
:100DF000801343FA05F5A844B9E7142D10D0012358
:100E0000C5F1340503FA05F5AE1928BF9844D3E7B8
:100E100024F00042074B324318BF1C460026A9E7C6
:100E200004F10108C8E700BF9C7500883CE4377EE8
:100E3000FFFF0F000000F0BF2DE9F04FD84B9942A3
:100E400087B0804689460E4613DCD64B21F000441D
:100E50009C4218DD0022D44B17F02EFF002879D0D9
:100E6000002200230020D14917F0E8FD07B0BDE8BB
:100E7000F08FCF4B99422FDD42464B4617F002FBD5
:100E800007B0BDE8F08FCB4B9C4270DDCA4B1E44CF
:100E90009E427ED80022C94B4046494617F0F2FADE
:100EA0004FEA215AAAF2FF3ABAF1000F04460D4662
:100EB0000E4640F3DE8142464B4617F0E1FA024609
:100EC0000B460020BD4917F0DBFA22462B4617F0EF
:100ED000B5FDCDE902010BE0B94B9E42DADD9FED95
:100EE0009A7B8DED027B4FEA265A4446AAF2FF3ADE
:100EF000B44BC6F313069E4246F07F5500F3E780DD
:100F000045F44015204629460022AC4B17F0B8FAAC
:100F1000002204460D46AC4B17F066FC22462B46D9
:100F200017F062FCA046CDE90401A946CDE9000115
:100F3000002E3AD1002200232046294617F0BCFE9D
:100F4000002800F0CE80BAF1000F40F0748100203C
:100F5000002195E742464B464046314617F090FA4D
:100F600002460B4617F06AFD07B0BDE8F08F00227D
:100F7000964B17F087FA0022002317F0C5FE0028D1
:100F800000F0CC80924B9C4200F3C880404649461A
:100F900076E700228C4B17F027FC42464B4617F0B1
:100FA00023FCCDE900014FF0000A00224FF08043FE
:100FB0004046494617F066FA02460B464046494607
:100FC00017F03CFD02460B4606460F4617F00CFC98
:100FD0005FA3D3E9002304460D4617F005FC5EA38A
:100FE000D3E9002317F04EFA22462B4617F0FCFBFC
:100FF0005BA3D3E9002317F045FA22462B4617F0EE
:10100000F3FB59A3D3E9002317F03CFA22462B4601
:1010100017F0EAFB56A3D3E9002317F033FA224670
:101020002B4617F0E1FB54A3D3E9002317F02AFA6B
:1010300022462B4617F0D8FB51A3D3E9002317F023
:1010400021FA22462B4617F0CFFB04460D46BAF193
:10105000000F00F0BF80504617F060FB4AA3D3E9B1
:10106000002382468B4617F0BFFBDDE90023CDE964
:1010700004012046294617F005FA32463B4617F090
:10108000B3FB43A3D3E9002304460D46504659461B
:1010900017F0AAFBDDE9022317F0F4F902460B462C
:1010A0002046294617F0EEF902460B46DDE900011D
:1010B00017F0E6F942464B4617F0E2F902460B46B6
:1010C000DDE9040117F0DCF907B0BDE8F08F45F465
:1010D0000015C6F5801620462946B6100AF1010A09
:1010E00012E72DA3D3E900232046294617F07CFB05
:1010F00002460B460020314917F0C2F9DDE904230E
:1011000017F072FB06460F46BAF1000F73D1024684
:101110000B462046294617F0B3F9B1E642464B4646
:101120004046494617F060FB0022274B17F05CFB56
:1011300002460B464046494617F0A2F907B0BDE803
:10114000F08F00BFAFF3008000000000000000003F
:1011500044523EDF12F1C23F9FC678D0099AC33F86
:10116000DE03CB966446C73FAF788E1DC571CC3F7A
:10117000599322942449D23F04FA97999999D93FD7
:10118000935555555555E53F0000E0FE422EE63F8C
:10119000763C7935EF39EA3D555555555555E53F7E
:1011A0007982DA3FFFFFEF3F0000F0BF000050C33D
:1011B000FFFFEF7FFFFF1F3E3C412D400000F03F4F
:1011C000FFFF3F439DA006000000E03F00005043AA
:1011D000FFFF8F3CDDE9004522462B4617F052F910
:1011E00032463B4617F000FB02460B462046294696
:1011F00017F046F99CE7504617F090FA23A3D3E97D
:10120000002382468B4617F0EFFA22A3D3E900238E
:10121000804689465046594617F0E6FADDE9022332
:1012200017F030F902460B463046394617F028F9D8
:1012300022462B46DCE7504617F070FA15A3D3E997
:10124000002306460F4617F0CFFADDE9022317F018
:1012500019F90EA3D3E9002304460D46304639465A
:1012600017F0C2FA02460B462046294617F00AF943
:1012700006E60022044B17F003F902460B464046EF
:10128000494617F0FDF820E60000F03F0000E0FEC0
:10129000422EE63F763C7935EF39EA3D000000000A
:1012A00008B515F023FD04A3D3E9002317F0C6FB0E
:1012B00008BD00BFAFF30080EF39FAFE422EE63FD3
:1012C0002DE9F043DFF8B4808BB004460D4601F001
:1012D000F3F898F90030013306460F462BD022462A
:1012E0002B462046294617F019FD814618BB20469B
:1012F000294615F075F91FA3D3E9002317F004FD63
:10130000C8B1194A98F90030CDF820900321CDE9F1
:101310000445CDE902458DE806008BB9134B4FF02B
:101320006042CDE90623684616F0ACFE70B1089B1A
:101330009BB9DDE90667304639460BB0BDE8F0835E
:101340000B490020022BCDE90601ECD117F026F85D
:1013500022230360089B002BEBD017F01FF8089B9B
:101360000360E6E7AFF3008078AC0100FFFFEF47D2
:101370000000F07F7DF8B98FCE338640FB0100205E
:101380002DE9F043DFF8E4808BB004460D4601F010
:1013900043F998F90030013306460F4633D0204612
:1013A000294616F069FE70B32CA3D3E9002320462A
:1013B000294617F0A9FC814650BB2AA3D3E9002394
:1013C0002046294617F082FCE8B198F90030204AFF
:1013D000CDF82090002600270421022BCDE90445FA
:1013E000CDE90245CDE906678DE8060029D06846BB
:1013F00016F048FE28B3089B1BB116F0CFFF089BE0
:101400000360DDE90667304639460BB0BDE8F0837E
:101410000F4A98F90030019203210022CDE90445DA
:10142000CDE90245009108922BB90A4B4FF060427A
:10143000CDE90623DBE708490020022BCDE90601B0
:10144000D5D116F0ABFF22230360D4E7AFF30080C1
:1014500080AC0100FFFFEF470000F07FEF39FAFE9C
:10146000422E864051302DD5104987C0FB01002007
:101470002DE9F04FDFF80C938DB006460F46144669
:101480001D4601F0C5FC99F90080B8F1FF3FCDE998
:10149000000136D022462B462046294617F03EFC56
:1014A000834670BB32463B463046394617F036FC21
:1014B0008246002840F0A2803046394600220023B0
:1014C00017F0FAFB10B3002200232046294617F03C
:1014D000F3FB834600286AD09FEDA17B0122A44B39
:1014E000CDF828A00292CDE90467CDE906458DED3F
:1014F000087B0393B8F1000F45D09FED9B7B8DEDEA
:10150000007BDDE900010DB0BDE8F08FDDE90001F1
:1015100016F0B2FD8046002800F08D804FF0000AE2
:101520004FF0000BDDE9000152465B4617F0C4FBAB
:101530000028E6D03046394616F09EFD0028E0D05F
:101540002046294616F098FD0028DAD099F9003097
:10155000874A039204210022022BCDE90467CDE9DA
:101560000645CDE908AB02910A9203D002A816F015
:1015700089FD68B916F012FF2223036008E09FED91
:10158000787B8DED087B02A816F07CFD002830D01A
:101590000A9B1BB116F002FF0A9B03609DED087BBE
:1015A0008DED007BDDE900010DB0BDE8F08F204638
:1015B000294616F061FD0028A3D000220023204612
:1015C000294617F083FB00289BD099F90030684A20
:1015D000CDF828B00121CDE90467CDE90645029197
:1015E0000392002BCBD063490020022BCDE90801E8
:1015F000C9D116F0D3FE21230360C9E700220023DE
:101600002046294617F058FB00283FF47AAF5A4B82
:101610005749CDF828B000220120B8F1020FCDE9DA
:1016200004670290CDE90645CDE908230391AAD1CC
:10163000CDE9002365E73046394616F01DFD002848
:101640003FF46CAF2046294616F016FD00283FF403
:1016500065AFDDE900231046194617F05FFB00284F
:101660005FD1032399F900800293414B0A90CDE9A1
:101670000467CDE906450393B8F1000F2BD1DFF8DD
:1016800008B14FF0604A0022002330463946CDE9C8
:1016900008AB17F01BFB00283FF468AF0022374B64
:1016A0002046294617F0A0F804460D4616F0F2FC35
:1016B00002460B462046294617F0FEFA70BB304B17
:1016C00099F900804FF06042CDE90823B8F1020F8C
:1016D0007FF44CAF4EE7DFF8B4B04FF0000A0022C1
:1016E000002330463946CDE908AB17F0EFFA002861
:1016F000ECD00022214B2046294617F075F804460D
:101700000D4616F0C7FC02460B462046294617F048
:10171000D3FA18B9174B0022CDE9082399F90080B4
:10172000D4E799F90090124BCDF828800122CDE939
:101730000467CDE9064502920393B9F1000F3FF427
:101740001EAF002200231046194617F077F9B9F1B1
:10175000020FCDE908013FF44CAF14E7AFF300806E
:101760000000000000000000000000000000F03F4A
:1017700098AC01000000F0FF0000F03F0000E03FE7
:10178000FFFFEFC7FB010020FFFFEF470000F07FE6
:101790002DE9F84FC44E21F00043B34204460D46F4
:1017A0000DDD03F1404303F58013034340F0B9809E
:1017B000002940F3408100200021BDE8F88FBB4E96
:1017C000B34240F3A6800029C0F2788102460B465E
:1017D0000020B74916F054FE0022B64B17F004F86B
:1017E00004460D4615F0C0FD95A3D3E900238946B4
:1017F00080462946204616F0F7FF93A3D3E900233D
:1018000016F040FE22462B4616F0EEFF90A3D3E9D9
:10181000002316F035FE22462B4616F0E5FF8EA378
:10182000D3E9002316F02EFE22462B4616F0DCFFED
:101830008BA3D3E9002316F023FE22462B4616F095
:10184000D3FF89A3D3E9002316F01CFE22462B46C2
:1018500016F0CAFF86A3D3E9002382468B462046B2
:10186000294616F0C1FF84A3D3E9002316F008FE31
:1018700022462B4616F0B8FF81A3D3E9002316F0C9
:1018800001FE22462B4616F0AFFF7FA3D3E90023CB
:1018900016F0F6FD22462B4616F0A6FF0022844BDA
:1018A00016F0F0FD02460B465046594617F0C6F8B2
:1018B00042464B4616F098FF002682468B4632463B
:1018C0004B463046494616F08FFF02460B462046EF
:1018D000294616F0D5FD324604460D464B46404695
:1018E000494616F0CFFD02460B462046294617F022
:1018F000A5F802460B465046594616F0C3FD32463F
:101900004B4616F0BFFD02460B4616F0BBFDBDE888
:10191000F88F694A93420EDC5DA1D1E90001BDE870
:10192000F88F02460B4616F0ABFD02460B4617F049
:1019300085F8BDE8F88F02460B4616F055FF40A328
:10194000D3E9002306460F4616F04EFF3EA3D3E927
:10195000002316F097FD32463B4616F045FF3CA3A8
:10196000D3E9002316F08CFD32463B4616F03CFFCF
:1019700039A3D3E9002316F085FD32463B4616F025
:1019800033FF37A3D3E9002316F07AFD32463B46F6
:1019900016F02AFF34A3D3E9002316F073FD324674
:1019A0003B4616F021FF32A3D3E900238046894647
:1019B0003046394616F018FF2FA3D3E9002316F05E
:1019C0005FFD32463B4616F00FFF2DA3D3E90023FF
:1019D00016F058FD32463B4616F006FF2AA3D3E91F
:1019E000002316F04DFD32463B4616F0FDFE002268
:1019F0002F4B16F047FD02460B464046494617F06E
:101A00001DF822462B4616F0EFFE02460B4622A199
:101A1000D1E9000116F034FD02460B462046294666
:101A200016F02EFD02460B4619A1D1E9000116F071
:101A300027FDBDE8F88F1AA1D1E90001BDE8F88FB4
:101A400009F7FD0DE13D023F88B20175E0EF493F26
:101A50003B8F68B52882A43F5544880E55C1C93FC5
:101A60007D6FEB0312D6D43F555555555555C53F9F
:101A700082922EB1C5B8B33F59018D1B6C06E63F6B
:101A8000C88A599CE52A00404B2D8A1C273A0340FE
:101A9000182D4454FB21F93F075C143326A6913CD2
:101AA000182D4454FB210940FFFFEF3FFFFFDF3FAC
:101AB0000000F03F0000E03F0000603C00225C4B73
:101AC00016F0E0FC00225B4B16F08EFE40A3D3E93B
:101AD000002304460D4616F087FE3FA3D3E90023FA
:101AE00016F0D0FC22462B4616F07EFE3CA3D3E92E
:101AF000002316F0C5FC22462B4616F075FE3AA3CD
:101B0000D3E9002316F0BEFC22462B4616F06CFEED
:101B100037A3D3E9002316F0B3FC22462B4616F078
:101B200063FE35A3D3E9002316F0ACFC22462B4616
:101B300016F05AFE804689462046294615F014FCC8
:101B40002FA3D3E9002306460F462046294616F068
:101B50004BFE2DA3D3E9002316F092FC22462B4620
:101B600016F042FE2AA3D3E9002316F08BFC22468E
:101B70002B4616F039FE28A3D3E9002316F080FC8B
:101B800022462B4616F030FE0022294B16F07AFC36
:101B900002460B464046494616F050FF32463B4649
:101BA00016F022FE1EA3D3E9002316F069FC32468C
:101BB0003B4616F067FC02460B4616F063FC0246F5
:101BC0000B4619A1D1E9000116F05AFCBDE8F88FC7
:101BD00009F7FD0DE13D023F88B20175E0EF493F95
:101BE0003B8F68B52882A43F5544880E55C1C93F34
:101BF0007D6FEB0312D6D43F555555555555C53F0E
:101C000082922EB1C5B8B33F59018D1B6C06E63FD9
:101C1000C88A599CE52A00404B2D8A1C273A03406C
:101C2000075C143326A6913C182D4454FB2109402F
:101C30000000F03F0000E03F434A91422DE9F843A5
:101C400004460D4639DD414A914209DD02F17952DF
:101C5000914240DD02460B4616F014FCBDE8F883C5
:101C600001F1404202F58012024330D0B1F1804FC1
:101C70003ADC0022364B16F003FC02460B460446C3
:101C80000D4616F0FFFB224606460F462B46204621
:101C9000294616F0A9FD02460B463046394616F095
:101CA000F1FB15F061FB0B4602462946204616F073
:101CB000E9FBBDE8F843FFF7BFB802460B4616F054
:101CC000DFFB02460B4616F0B9FEBDE8F8830020A4
:101CD0000021BDE8F88300F017FE19A3D3E9002323
:101CE00016F0D0FBBDE8F88302460B4616F07CFDEB
:101CF0000022174B16F0C4FB15F036FB2246804637
:101D000089462B462046294616F0BCFB424606462D
:101D10000F464B462046294616F0B4FB02460B46BA
:101D200000200B4916F08AFE0B4602463946304623
:101D300016F0A6FBBDE8F84300F0E6BDAFF3008067
:101D4000EF39FAFE422EE63FFFFFEF3FFFFFAF41C4
:101D50000000F03F000000002DE9F047BE4B21F0ED
:101D60000048984584B004460D4612DD08F140480D
:101D700008F58018034658EA030321D002460B46B3
:101D800016F07EFB02460B4616F058FE04B0BDE886
:101D9000F087B24B98458A4629DCB8F1795F80F22A
:101DA000658191A3D3E9002316F06CFB0022AC4BB4
:101DB00016F0AAFFD8B12046294604B0BDE8F08746
:101DC0008BA3D3E9002316F00FFD8BA3D3E90023E7
:101DD00006460F462046294616F006FD02460B46EB
:101DE0003046394616F04EFB04B0BDE8F087204679
:101DF000294614F0F5FB02460B460020984916F0E0
:101E00003FFB0022974B16F0EFFC7DA3D3E90023A4
:101E100004460D4616F0E8FC7BA3D3E9002316F038
:101E200031FB22462B4616F0DFFC79A3D3E90023D1
:101E300016F026FB22462B4616F0D6FC76A3D3E9F5
:101E4000002316F01FFB22462B4616F0CDFC74A390
:101E5000D3E9002316F014FB22462B4616F0C4FCEF
:101E600071A3D3E9002316F00DFB22462B4616F092
:101E7000BBFC6FA3D3E90023CDE90001204629462E
:101E800016F0B2FC6CA3D3E9002316F0F9FA22464F
:101E90002B4616F0A9FC6AA3D3E9002316F0F2FA48
:101EA00022462B4616F0A0FC67A3D3E9002316F0C8
:101EB000E7FA22462B4616F097FC694B002216F0F3
:101EC000E1FACDE902012046294615F04DFA664BAC
:101ED000984506460F4666DCDDE90223DDE9000190
:101EE00016F0ACFD3246CDE900013B46304639469E
:101EF00016F0C8FA02460B46DDE9000116F074FC44
:101F00004FF00008CDE9000142463B4640463946C5
:101F100016F06AFC02460B462046294616F0B0FA37
:101F2000424604460D463B463046394616F0AAFA6C
:101F300002460B462046294616F080FD02460B4617
:101F400016F0A0FA02460B462BA1D1E9000116F0CB
:101F500097FA02460B46DDE9000116F091FA424677
:101F600004460D463B464046394616F08BFA02467B
:101F70000B4637A1D1E9000116F082FA02460B4662
:101F80002046294616F07CFA02460B4630A1D1E9DC
:101F9000000116F075FABAF1000F3FF7F7AE01F144
:101FA00000431946F2E6DDE90223DDE9000116F0FF
:101FB00045FD32463B4616F017FC32463B4616F0CE
:101FC00061FA02460B4616F05DFA0BA3D3E9002333
:101FD00016F056FA02460B4605A1D1E9000116F0AB
:101FE0004FFAD8E7AFF300809C7500883CE4377E59
:101FF000182D4454FB21F93F075C143326A6913C6D
:1020000009F7FD0DE13D023F88B20175E0EF493F60
:102010003B8F68B52882A43F5544880E55C1C93FFF
:102020007D6FEB0312D6D43F555555555555C53FD9
:1020300082922EB1C5B8B33F59018D1B6C06E63FA5
:10204000C88A599CE52A00404B2D8A1C273A034038
:10205000182D4454FB21E93FFFFFEF3FFFFFDF3F17
:102060000000F03F0000E03F3233EF3F02460B46F6
:1020700016F0BAFB37A3D3E9002306460F4616F045
:10208000B3FB36A3D3E9002316F0FCF932463B46F6
:1020900016F0AAFB33A3D3E9002316F0F1F9324678
:1020A0003B4616F0A1FB31A3D3E9002316F0EAF971
:1020B00032463B4616F098FB2EA3D3E9002316F0D8
:1020C000DFF932463B4616F08FFB2CA3D3E9002301
:1020D00016F0D8F932463B4616F086FB29A3D3E921
:1020E0000023804689463046394616F07DFB27A3FB
:1020F000D3E9002316F0C4F932463B4616F074FBD0
:1021000024A3D3E9002316F0BDF932463B4616F06E
:102110006BFB22A3D3E9002316F0B2F932463B460B
:1021200016F062FB00220A4B16F0ACF902460B4691
:102130004046494616F082FC22462B4616F054FBD8
:1021400022462B4616F09EF904B0BDE8F08700BF8A
:102150000000F03F09F7FD0DE13D023F88B2017537
:10216000E0EF493F3B8F68B52882A43F5544880E75
:1021700055C1C93F7D6FEB0312D6D43F5555555518
:102180005555C53F82922EB1C5B8B33F59018D1B3D
:102190006C06E63FC88A599CE52A00404B2D8A1CF4
:1021A000273A0340000000002DE9F84F1D46534236
:1021B000134325F0004ADFF8E0E14AEAD3737345A0
:1021C000144606460F4647D8C0F1000848EA000802
:1021D00021F0004343EAD878F0458B463CD805F11E
:1021E000404808F5801858EA020850D04FEAA57810
:1021F00008F0020848EAD17850EA030134D052EAE4
:102200000A023CD0F24557D0734538D0A3EB0A03FD
:102210001B153C2B42DC002D70DB22462B46304642
:10222000394616F00BFC14F0DBF9FEF751FBB8F160
:10223000010F5FD0B8F1020F4ED0B8F1000F62D09D
:1022400043A3D3E9002316F01BF943A3D3E90023EA
:1022500016F016F9BDE8F88F32463B46204629466F
:1022600016F010F9BDE8F88FB8F1020F1AD0B8F1E6
:10227000030F10D13AA1D1E90001BDE8F88FBBF1FD
:10228000000F14DB38A1D1E90001BDE8F88FBDE8EB
:10229000F84FFEF71DBB3946BDE8F88F32A1D1E9F2
:1022A0000001C4E72CA1D1E90001BDE8F88F30A1FD
:1022B000D1E90001BDE8F88F534526D0B8F1020FEF
:1022C000F0D0B8F1030FD5D0B8F1010F4FF00000F6
:1022D00029D00021BDE8F88F1DA3D3E9002316F013
:1022E000CFF802460B461CA1D1E9000116F0C8F850
:1022F000BDE8F88F01F10041BDE8F88F3C338CDA7E
:102300000020002193E7BDE8F88FB8F1020F18D044
:10231000B8F1030F10D0B8F1010F08D016A1D1E920
:102320000001BDE8F88F4FF00041BDE8F88F14A11F
:10233000D1E90001BDE8F88F13A1D1E90001BDE8A2
:10234000F88F13A1D1E90001BDE8F88FAFF3008049
:10235000075C143326A6A13C182D4454FB210940E8
:10236000182D4454FB2109C0182D4454FB21F93F7A
:10237000182D4454FB21F9BF182D4454FB21E93F8B
:10238000182D4454FB21E9BFD221337F7CD902C0F0
:10239000D221337F7CD902400000F07F0000000092
:1023A00043422DE9F047034321F000463E4A46EA06
:1023B000D373934204460D4613D896423DD03B4B0F
:1023C0009E428A4617DC36A3D3E9002316F05AF85A
:1023D0000022002316F098FCA8B320462946BDE849
:1023E000F08702460B4616F04BF802460B4616F0F5
:1023F00025FBBDE8F0872E4B9E42354624DD334653
:102400000246314616F03EF8224606460F462B4657
:102410000020254916F034F802460B46304639466E
:1024200016F00CFBFEF708FD0022224B16F0DCF93B
:10243000BAF1000F2FDBBDE8F0870022002316F071
:10244000FDFABDE8F087354622462B462046294650
:1024500016F018F822462B4606460F4616F0C4F929
:102460002246804689462B4600200F4916F008F880
:1024700002460B464046494616F0E0FA32463B46D5
:1024800016F000F8FEF7D8FC00220A4B16F0ACF963
:10249000BAF1000FCFDA01F100431946BDE8F08729
:1024A0009C7500883CE4377E0000F03FFFFF2F3E24
:1024B000FFFFDF3F0000E03F2DE9F8434E4B21F0E6
:1024C00000449C4206460F461BDC4C4B9C4222DDDE
:1024D0004B4B9C4263DD4B4B9C427BDD4A4B9C4209
:1024E00046DD01339C4240D041A3D3E9002310468E
:1024F000194616F079F906460F4630463946BDE8CA
:10250000F88302460B4616F06FF906460F46304632
:102510003946BDE8F88314F063F802F0B1FC0022FC
:102520003A4B8046894615F0ADFFB4F1725F06461E
:102530000F46ECDB42464B464046494616F054F9FE
:1025400032463B4604460D463046394615F09AFF62
:1025500002460B462046294616F070FA00222B4B05
:1025600015F090FF06460F46D1E7294B9842BBD89D
:102570003046394614F034F80022264B16F034F970
:1025800000F04AF8002204460D46224B16F02CF9C2
:1025900022462B4616F028F906460F46B7E714F0F8
:1025A0001FF800F039F800221A4B06460F4616F0C5
:1025B0001BF932463B4604460D460020154916F0ED
:1025C0003DFA02460B462046294615F05BFF0646BB
:1025D0000F469CE714F004F800F01EF800220D4BA3
:1025E00016F002F906460F4691E700BFAFF30080F0
:1025F0009C7500883CE4377EFFFFEF7F422ED63F7C
:10260000FFFF3540412E8640CD3386400000F03F2D
:102610007DF8B98F0000E03F2DE9F04FB04E21F07A
:102620000042B24283B004460D464FEAD1770DD93D
:10263000AC4EB24225D9C1F31303034340F0EC8002
:102640000FB10020002103B0BDE8F08FA64B9A42E5
:1026500000F2CB80A54B9A4200F2DC808AA3D3E93A
:10266000002315F00FFF0022A14B16F04DFB0028B0
:1026700000F006812046294600229D4B15F002FFFE
:10268000E1E783A3D3E9002316F03EFB002840F0E6
:10269000C88081A3D3E900232046294616F016FB03
:1026A0000028CED1934E7EA3D3E9002306EBC706C4
:1026B0002046294616F098F8D6E9002315F0E2FEE8
:1026C00016F042FB064616F029F877A3D3E900235B
:1026D0008046894616F088F802460B462046294671
:1026E00015F0CEFE72A3D3E90023CDE900014046E8
:1026F000494616F079F882468B4652465B46DDE93C
:10270000000115F0BDFE04460D4622462B4620462C
:10271000294616F069F868A3D3E900238046894664
:1027200016F062F866A3D3E9002315F0A9FE42462D
:102730004B4616F059F864A3D3E9002315F0A2FE26
:1027400042464B4616F050F861A3D3E9002315F03A
:1027500097FE42464B4616F047F85FA3D3E90023A5
:1027600015F090FE42464B4616F03EF802460B46E8
:102770002046294615F084FE80468946002E58D012
:102780002046294642464B4616F02EF8424604465D
:102790000D464B4600204FF0804115F071FE024679
:1027A0000B462046294616F049F902460B4650468C
:1027B000594615F065FEDDE9002315F061FE0B4674
:1027C00002464B49002015F05BFE6FF47F739E427A
:1027D00051DA06F57A7601EB065100224FF0B87314
:1027E00016F002F803B0BDE8F08F434B9A423FF673
:1027F00059AF424BFC002344D3E9002315F040FEBF
:102800003F4BC7F101062344CDE90001D3E900ABFA
:10281000F61B72E7002678E702460B4615F032FEFB
:1028200011E719A3D3E900231046194615F0DCFF80
:1028300009E702460B462046294615F0D5FF00223F
:1028400006460F464FF080434046494615F018FEB5
:1028500002460B463046394616F0F0F822462B4623
:1028600015F00EFE02460B460020214915F008FE29
:1028700003B0BDE8F08F01EB065103B0BDE8F08F67
:10288000064642E7AFF300809C7500883CE4377E43
:10289000EF39FAFE422E864051302DD5104987C0BF
:1028A000FE822B654715F73F0000E0FE422EE63F13
:1028B000763C7935EF39EA3DD0A4BE726937663E81
:1028C000F16BD2C541BDBB3E2CDE25AF6A56113F30
:1028D00093BDBE166CC1663F3E5555555555C53F17
:1028E000412E8640FFFFEF7F422ED63FFFFF2F3E57
:1028F0000000F03F389A0100B1A2F03F489A010071
:10290000589A0100000000002DE9F04FB1F5801F3A
:1029100085B006460F460B465ADA024621F00044BF
:10292000224300F0F8800029C0F27A810022D64BC1
:1029300015F05AFFD54A0B46934206460F466FF0F4
:10294000350C4ADCC3F3130505F5152E0EF6647E2F
:102950000EF4801E8EF07F5282F440121C1542EA63
:102960000507A4F2FF3464440022C94B30463946BF
:1029700004EB1E5415F084FDAB1CC3F31303022BB0
:1029800082468B464FF0000230DC002316F094F9AB
:10299000002800F0C980002C00F04B81204615F083
:1029A000BDFEA5A3D3E9002306460F4615F01CFF84
:1029B000A3A3D3E9002304460D463046394615F05B
:1029C00013FF02460B462046294615F05BFD0AE040
:1029D000AE4A93424FF0000CB4DD32463B463046DF
:1029E000394615F04FFD05B0BDE8F08F4FF080433C
:1029F00015F048FD02460B465046594616F01EF8A3
:102A0000064620460F4615F089FE3246CDE9000104
:102A10003B4630463946CDE9026715F0E5FE0246F1
:102A20000B468046894615F0DFFE87A3D3E90023D5
:102A300006460F4615F0D8FE85A3D3E9002315F00E
:102A400021FD32463B4615F0CFFE83A3D3E9002398
:102A500015F018FD32463B4615F0C6FE80A3D3E9BB
:102A6000002315F00FFD42464B4615F0BDFE7EA338
:102A7000D3E90023804689463046394615F0B4FE36
:102A80007BA3D3E9002315F0FDFC32463B4615F04D
:102A9000ABFE79A3D3E9002315F0F4FC32463B46A4
:102AA00015F0A2FE0B4602464946404615F0EAFCE8
:102AB000A5F5C223C5F5D725A3F27A4351351D43A9
:102AC000002D8046894656DD0022724B50465946FD
:102AD00015F08AFE52465B4615F086FE06460F4606
:102AE000002C68D132463B464046494615F0CAFCA8
:102AF000DDE9022315F078FE02460B4630463946E2
:102B000015F0BEFC02460B465046594615F0B8FC7F
:102B100005B0BDE8F08F0022002300205E4915F0CB
:102B20008DFF05B0BDE8F08F55A3D3E900235046D3
:102B3000594615F059FE02460B460020554915F03E
:102B40009FFC524606460F465B465046594615F0D6
:102B50004BFE02460B463046394615F045FE06460A
:102B60000F46002C40F09A8002460B4650465946CC
:102B700015F086FC37E7002C00F0A4802EA3D3E9E3
:102B80000023DDE9000115F02FFE42464B460446C6
:102B90000D465046594615F073FCDDE9022315F049
:102BA00023FE27A3D3E9002306460F46DDE90001F3
:102BB00015F01AFE21E020A3D3E90023DDE900018E
:102BC00015F012FE32463B4604460D464046494645
:102BD00015F058FCDDE9022315F006FE18A3D3E931
:102BE000002380468946DDE9000115F0FDFD02461F
:102BF0000B464046494615F045FC02460B4630461A
:102C0000394615F03DFC52465B4615F039FC02464C
:102C10000B462046294615F033FC05B0BDE8F08F81
:102C200002460B4615F02CFC0022002315F006FF8F
:102C3000D9E600200021D6E60000E0FE422EE63F65
:102C4000763C7935EF39EA3D44523EDF12F1C23F1E
:102C5000DE03CB966446C73F599322942449D23F62
:102C6000935555555555E53F9FC678D0099AC33FB2
:102C7000AF788E1DC571CC3F04FA97999999D93FC9
:102C8000555555555555D53F00005043FFFFEF7F33
:102C90000000F03F0000E03F000050C3204615F068
:102CA0003DFD0FA3D3E900238046894615F09CFD26
:102CB0000DA3D3E9002304460D464046494615F0CE
:102CC00093FD9AE702460B465046594615F0D8FB4D
:102CD000DDE9022315F088FD14E700BFAFF30080A3
:102CE0000000E0FE422EE63F763C7935EF39EA3DC2
:102CF000B1F5801F2DE9F84304460D460B461ADA5C
:102D0000024621F00046324359D000295FDB002201
:102D10003B4B15F069FD3B4A0D462B46934204465A
:102D20006FF035010CDD22462B462046294615F072
:102D3000A9FBBDE8F883334A93424FF00001F2DC6F
:102D40001815A0F2FF3008444FEAD0794844C3F385
:102D5000130815F0E3FCC9F57F73033348EA035504
:102D600006460F4620462946FFF7CEFD1EA3D3E9AF
:102D70000023804689463046394615F035FD1CA3B0
:102D8000D3E9002304460D464046494615F02CFD84
:102D900002460B462046294615F074FB16A3D3E9DC
:102DA000002304460D463046394615F01DFD024607
:102DB0000B462046294615F065FBBDE8F883002246
:102DC00000230020104915F039FEBDE8F8830246C3
:102DD0000B4615F055FB0022002315F02FFEBDE831
:102DE000F88300BFAFF30080362BF111F3FE593D9D
:102DF0000EE526157BCBDB3F00609F501344D33F8D
:102E000000005043FFFFEF7F000050C300000000B0
:102E10002DE9F04F23F0004757EA020493B037D072
:102E2000674C21F00046A64283460D4629DC9A46AF
:102E3000964625D0A74224DC614CA74279D0002DCC
:102E400080468946CDE9002377DB0024BEF1000FE0
:102E50002CD15B4B9F4200F08B805A4B9F4261D03C
:102E6000BAF1804F00F0C383574B9A451ED1002D15
:102E70001CDB4046494613B0BDE8F04F14F074BA6D
:102E800058B106F1404606F5801656EA0B0306D106
:102E90004C49002013B0BDE8F08FB742CCDD4B4861
:102EA00013B0BDE8F04F15F0EFB800244046494696
:102EB00013F096FBBBF1000F19D126B1414B25F061
:102EC00040429A4213D1BAF1000FC0F2CA83002DDA
:102ED000E0DA06F1404606F5801656EA040300F0F3
:102EE000A584012CD6D101F100431946D2E7ED0F9C
:102EF000013D54EA05034ED0354B9F426EDD03F190
:102F000004739F4240F3FE83324B9E424EDDBAF182
:102F1000000F4EDD28A3D3E900231046194615F013
:102F200063FCB7E7BAF1000FC0F25284404649464D
:102F3000B0E7BEF1000F82D0A3E7274B9F4228DC09
:102F4000A3F154739F4280DD3B15A3F2FF33142B92
:102F500040F35484C3F134032EFA03F202FA03F36C
:102F60009E457FF472AF02F00102C2F102046DE7E8
:102F700006F1404303F5801353EA0B0388D0154B49
:102F80009E4240F33B83BAF1000F12DBDDE9000102
:102F900080E702245AE742464B461046194615F090
:102FA0006FFA02460B4615F049FD73E7BAF1000FC0
:102FB000B0DB002000216DE79C7500883CE4377E83
:102FC0000000F07F0000F03F0000E03F84A201001D
:102FD0000000E041FFFFEF3FFFFF3F43B6F5801FDA
:102FE0004FF0000205DAD84B15F0FEFB6FF034020B
:102FF0000E463315D54FC6F31306A3F2FF33134421
:1030000046F07F5ABE421A460D934AF4401A40F3E6
:103010002F83CF4B9E4240F30D849FEDB57B8DED0A
:10302000087B8DED0E7B9FEDB47B13468DED067B0B
:1030300001330D93AAF5801A0027DDE906235146D6
:10304000CDE90A0115F01CFADDE906238046894620
:10305000DDE90A0115F016FA02460B460020BD49CB
:1030600015F0ECFC0A460146CDE91012134649461C
:103070000246404615F0B8FB4FEA6A0343F000539E
:103080008C46834603F50023CDE904BCDA468B4623
:10309000D9190023CDE902AB0293DDE902AB002090
:1030A00006460F4602460B465046594615F09CFB15
:1030B00002460B464046494615F0E2F9DDE9062393
:1030C000804689463046394615F0DAF902460B4605
:1030D000DDE90A0115F0D4F952465B4615F084FB90
:1030E00002460B464046494615F0CAF9DDE9102371
:1030F00015F07AFBDDE90467CDE9060132463B466F
:103100003046394615F070FB7DA3D3E9002306460F
:103110000F4615F069FB7CA3D3E9002315F0B2F943
:1031200032463B4615F060FB79A3D3E9002315F046
:10313000A9F932463B4615F057FB77A3D3E90023A4
:1031400015F0A0F932463B4615F04EFB74A3D3E9C7
:10315000002315F097F932463B4615F045FB72A364
:10316000D3E9002315F08EF93246804689463B4666
:103170003046394615F038FB02460B464046494674
:1031800015F032FB524606460F465B46DDE9040168
:1031900015F078F9DDE9062315F026FB32463B46AB
:1031A00015F070F95246804689465B4650465946AE
:1031B00015F01AFB0022684BCDE90A0115F062F9FF
:1031C00042464B4615F05EF902980F4606463246D7
:1031D0003B465046594615F007FB002282468B4677
:1031E0005D4B3046394615F04BF9DDE90A2315F001
:1031F00047F902460B464046494615F041F9DDE9DC
:10320000042315F0F1FA3246804689463B46DDE953
:10321000060115F0E9FA02460B464046494615F00C
:1032200031F98046894602460B4650465946CDE95B
:1032300004AB15F027F9DDE902AB3DA3D3E9002388
:1032400050460F4615F0D0FADDE90423CDE902011E
:103250003946504615F014F902460B464046494699
:1032600015F00EF934A3D3E9002315F0BDFA34A309
:10327000D3E90023804689465046394615F0B4FA12
:1032800002460B464046494615F0FCF8DDE90E23A0
:1032900015F0F8F880460D98894615F03FFA424639
:1032A00006460F464B46DDE9020115F0EBF8DDE975
:1032B000082315F0E7F832463B4615F0E3F83246AE
:1032C0003B4650468B4615F0DBF8DDE9082315F048
:1032D000D7F8DDE9022315F0D3F802460B46404645
:1032E000494615F0CDF88046894637E0AFF30080B7
:1032F0000000000000000000000000000000F03F9F
:10330000EF4E454A287ECA3F65DBC9934A86CD3FCA
:1033100001411DA96074D13F4D268F515555D53FB0
:10332000FFAB6FDBB66DDB3F033333333333E33F48
:10333000000000E009C7EE3FFD033ADC09C7EE3F9D
:10334000F5015B14E02F3EBE000040438E98030061
:1033500079B60B000000F03F00000840013C54EA41
:10336000050300F079819FEDC87B8DED047BDDE9DD
:1033700000120B461446CDE9023400230293DDE926
:10338000024508462B461146224615F079F852466A
:103390005B4615F029FADDE9002306460F46404654
:1033A000494615F021FA02460B463046394615F0DB
:1033B00069F82246804689462B4650465946CDE953
:1033C000008915F011FA0B46024606460F464046A4
:1033D000494615F057F8C64B994204460D468A46B1
:1033E00040F3168101F13F4303F5E003034340F04E
:1033F000F781A7A3D3E90023DDE9000115F042F826
:103400003246804689463B462046294615F038F824
:1034100002460B464046494615F076FC002840F02F
:10342000DF81A8464FEA28534FF48012A3F2FE33FF
:1034300042FA03F35344C3F30A52AE4DA2F2FF32F1
:103440001541C3F3130423EA05010020C2F1140B54
:1034500044F48014BAF1000F02460B4644FA0BFB09
:1034600030463946B8BFCBF1000B15F009F80246DB
:103470000B4606460F46DDE9000115F003F84FEA5A
:103480000B5A0D46002484A3D3E900232046294685
:1034900015F0AAF93246804689463B462046294621
:1034A00014F0EEFF02460B46DDE9000114F0E8FFE0
:1034B0007BA3D3E9002315F097F97BA3D3E900237D
:1034C00006460F462046294615F08EF902460B4661
:1034D0003046394614F0D6FF06460F4602460B46E4
:1034E0004046494614F0CEFF42464B4604460D4640
:1034F00014F0C6FF02460B463046394614F0C0FFB2
:103500002246804689462B462046294615F06CF90E
:1035100067A3D3E9002306460F4615F065F966A3B5
:10352000D3E9002314F0ACFF32463B4615F05CF9BA
:1035300063A3D3E9002314F0A5FF32463B4615F000
:1035400053F961A3D3E9002314F09AFF32463B46B6
:1035500015F04AF95EA3D3E9002314F093FF324635
:103560003B4615F041F902460B462046294614F029
:1035700087FF06460F4602460B462046294615F0B1
:1035800033F90022CDE900014FF08043304639463F
:1035900014F076FF02460B46DDE9000115F04EFA05
:1035A000424606460F464B462046294615F01CF972
:1035B00042464B4614F066FF02460B4630463946FB
:1035C00014F05EFF22462B4614F05AFF02460B46CB
:1035D0000020494914F054FF8A44BAF5801FC0F214
:1035E00039815146DDE9042315F0FEF852E44246E4
:1035F0004B464046494615F0F7F84BE4BAF1000F48
:10360000BFF6D7ACDDE90034184604F1004141E4CF
:103610003A4B21F00048984540F3FF80384B0B446B
:1036200003430CD132463B4614F02AFF02460B46B8
:10363000DDE9000115F054FB00283FF4F3AEDDE9AD
:10364000040125A3D3E9002315F0CEF822A3D3E982
:10365000002315F0C9F81DE49FED217B8DED047B5F
:1036600085E602460B460020234915F0E7F92EE4D3
:103670009FED1D7B8DED087B8DED0E7B9FED027B1D
:1036800000278DED067BD8E4000000000000F03F2D
:10369000FE822B654715973C00000000432EE63F55
:1036A000EF39FAFE422EE63F396CA80C615C20BE71
:1036B000D0A4BE726937663EF16BD2C541BDBB3E38
:1036C0002CDE25AF6A56113F93BDBE166CC1663F16
:1036D0003E5555555555C53F59F3F8C21F6EA501C6
:1036E000000000000000F0BF00000000000000002B
:1036F000FFFF8F40FFFF0F000000F03FFFCB904027
:1037000000346F3F684B9E427FF750AC674B9E4240
:103710003FF7FDAB0022654B14F0B2FE52A3D3E994
:10372000002306460F4615F05FF851A3D3E90023A6
:10373000804689463046394615F056F800228246C2
:103740008B465B4B3046394615F04EF802460B4629
:1037500049A1D1E9000114F093FE32463B4615F031
:1037600043F802460B460020524914F089FE3246C7
:10377000CDE902013B463046394615F035F80246A0
:103780000B46DDE9020115F02FF83DA3D3E9002334
:1037900015F02AF802460B465046594614F070FEC2
:1037A00002460B4606460F464046494614F06AFE5E
:1037B00042464B46002082468B4614F061FE02468C
:1037C0000B463046394614F05BFE80468946C5E517
:1037D00042464B460020354915F030F9FFF75ABBF9
:1037E000DDE9040128A3D3E9002314F0FDFF26A39B
:1037F000D3E9002314F0F8FFFFF74CBBBEF1000F34
:103800007FF453ABC3F1140347FA03F202FA03F354
:103810009F4223D07446FFF720BB264B98453FF7C5
:1038200001AEDDE90223924693462BE602460B46A3
:10383000FFF7B3BB9FED167B8DED087B9FED167BED
:103840008DED0E7B9FED167B4FF480278DED067B73
:10385000FFF7F3BB5A4601F04FFDC3E602F0010249
:10386000C2F10204FFF7F9BA000000604715F73F04
:1038700044DF5DF80BAE543E555555555555D53F73
:10388000FE822B654715F73F9C7500883CE4377E28
:103890000000004003B8E23F06D0CF43EBFD4C3EB2
:1038A000000000000000F83FFEFFEF3F0000F03F87
:1038B0000000D03F0000E03F2DE9F0479C4B21F095
:1038C00000479F4290B08046894640F38E80994BD6
:1038D0009F420C46924626DC00298BA3D3E90023A5
:1038E00040F3B08114F0CCFD934B9F4204460D464B
:1038F00000F0908086A3D3E9002314F0C1FD0246B6
:103900000B46CAE900232046294614F0B9FD80A3DE
:10391000D3E9002314F0B4FD0125CAE902012846C9
:1039200010B0BDE8F087854B9F4240F39080844BF8
:103930009F4265DC3D15A5F21645A7EB05531946D8
:103940001F46064615F000FA14F0E8FE8046894648
:1039500042464B4630463946CDE90A8914F090FD7F
:103960000022784B14F040FF8946804615F0ECF9B0
:1039700014F0D4FE06460F4632463B4640464946C2
:10398000CDE90C6714F07CFD00226E4B14F02CFF87
:1039900000220023CDE90E0115F08EF9002800F079
:1039A0006F81002330463946002215F085F9002842
:1039B00014BF01230223644A019202212A46009186
:1039C0000AA8514600F08CFB002C054614DADAF800
:1039D0000420DAF80C3002F1004203F100434542C2
:1039E000CAF80420CAF80C3006E000200021C2E921
:1039F0000089C2E902010025284610B0BDE8F08721
:103A000002460B4614F03CFD0025CAE90201CAE952
:103A10000001F1E740A3D3E9002314F031FD40A3F6
:103A2000D3E900230D46044614F02AFD02460B4656
:103A3000CAE900232946204614F022FD38A3D3E921
:103A4000002314F01DFD0125CAE90201D4E712F09C
:103A5000C7FD35A3D3E900238046894614F0C4FE90
:103A600000223A4B14F00EFD15F06EF9054614F0E5
:103A700055FE25A3D3E90023CDE9060114F0B4FED9
:103A800002460B464046494614F0FAFC20A3D3E90F
:103A90000023CDE90201DDE9060114F0A5FE1F2D8A
:103AA00080468946CDE9048954DC294B6A1E53F8C7
:103AB00022309F424ED002460B46DDE9020114F04F
:103AC000DFFC80468946CAE9008942464B46DDE96B
:103AD000020114F0D5FCDDE9042314F0D1FC002C24
:103AE000CAE9020188DA09F1004401F100436D429C
:103AF000CAF80080CAF80440CAF80800CAF80C30B6
:103B00007AE700BFAFF3008000004054FB21F93F8B
:103B10003163621A61B4D03D0000601A61B4D03DD7
:103B20007370032E8A19A33B83C8C96D305FE43FCD
:103B3000FB21E93F7BD90240FB21F93FFB213941C1
:103B4000FFFFEF7F0000704134AD01000000E03F57
:103B5000B4AC0100DDE90423DDE9020114F090FCBE
:103B60003F15C1F30A53FB1A80468946102BCAE958
:103B70000089AADD58A3D3E90023DDE9060114F08A
:103B800033FE8046894602460B46DDE9020114F009
:103B900077FC02460B46DDE90201CDE9082314F06B
:103BA0006FFC42464B4614F06BFC4DA3D3E9002357
:103BB00080468946DDE9060114F016FE42464B4672
:103BC00014F05EFC0B46CDE904010246DDE9080174
:103BD00014F056FCC1F30A53FF1A80468946312F70
:103BE000CAE900896CDD41A3D3E90023DDE90601C0
:103BF00014F0FAFDDDE9088906460F4602460B4639
:103C00004046494614F03CFC02460B4640464946B5
:103C1000CDE9022314F034FC32463B4614F030FC6C
:103C200034A3D3E9002306460F46DDE9060114F06C
:103C3000DBFD32463B4614F023FC02460B46CDE941
:103C400004233AE714F01EFC274B9F4204460D461E
:103C500018D01FA3D3E9002314F014FC02460B462E
:103C6000CAE900232946204614F00AFC18A3D3E928
:103C7000002314F007FC4FF0FF35CAE90201BBE650
:103C8000032398E614A3D3E9002314F0FBFB14A349
:103C9000D3E900230D46044614F0F4FB02460B461C
:103CA000CAE900232946204614F0EAFB0CA3D3E915
:103CB000002314F0E7FB4FF0FF35CAE902019BE651
:103CC0009DED087B8DED027BFFE600BFAFF300802A
:103CD0003163621A61B4D03D0000601A61B4D03D16
:103CE0007370032E8A19A33BFB21F93F0000002EBD
:103CF0008A19A33BC14920259A837B390000000023
:103D0000594A2DE9F84F21F00048904506460F46E4
:103D10002BDC564B0029B4BF554D564D98454FF0FE
:103D2000000410DC544B984570DC4DA3D3E900230C
:103D300014F0A8FB0022514B14F0E6FFD8B1304636
:103D40003946BDE8F88F4E4B98457CDD4D4B984584
:103D500044DD013398453ED03046394640A3D3E98F
:103D6000002314F041FDBDE8F88F02460B4614F025
:103D700089FBBDE8F88F3046394612F031FC01F07E
:103D80007FF806460F4632463B463046394614F029
:103D900079FB324682468B463B463046394614F024
:103DA00023FD002280468946344B3046394614F0C4
:103DB00069FB02460B464046494614F03FFE024668
:103DC0000B465046594614F05BFB22462B4614F036
:103DD0000BFDBDE8F88F2C4B9842BDD830463946D4
:103DE00012F0FEFB0022234B14F0FEFCFEF714FC45
:103DF00006460F4602460B462046294614F0F4FCC0
:103E000032463B4614F0F0FCBDE8F88F12F0E8FBB8
:103E100001F036F81D4B984506460F46B3DD0022EB
:103E2000164B14F02FFB02460B463046394614F071
:103E300005FE32463B4614F025FB22462B4614F085
:103E4000D3FCBDE8F88F12F0CBFBFEF7E5FB024692
:103E50000B462046294614F0C7FCBDE8F88F00BF8A
:103E60003374AC3C1F7BAC7FFFFFEF7FFFFF35401F
:103E70000000E0BF0000E03FFFFF2F3E0000F03FEA
:103E8000412E8640CD3386407DF8B98FFFFFEF3F4E
:103E90002DE9F04F21F00048B8F1795F85B0064672
:103EA0000F4692469B466BDA14F04EFF002800F056
:103EB000EA8032463B463046394614F095FC74A3FE
:103EC000D3E9002304460D4614F08EFC72A3D3E917
:103ED000002314F0D7FA22462B4614F085FC70A379
:103EE000D3E9002314F0CCFA22462B4614F07CFCD4
:103EF0006DA3D3E9002314F0C5FA22462B4614F033
:103F000073FC6BA3D3E9002314F0BAFA22462B46C4
:103F100014F06AFC68A3D3E9002314F0B3FA224634
:103F20002B4614F061FCCDE900010022664B2046CF
:103F3000294614F059FCDDE90023804689462046D5
:103F4000294614F051FC524604460D465B46304665
:103F5000394614F049FC02460B462046294614F027
:103F60008FFA02460B464046494614F089FA02464B
:103F70000B460020554914F083FA05B0BDE8F08FD8
:103F800002460B4614F030FC41A3D3E9002304465B
:103F90000D4614F029FC40A3D3E9002314F072FA73
:103FA00022462B4614F020FC3DA3D3E9002314F055
:103FB00067FA22462B4614F017FC3BA3D3E90023F3
:103FC00014F060FA22462B4614F00EFC38A3D3E915
:103FD000002314F055FA22462B4614F005FC36A3B4
:103FE000D3E9002314F04EFA2B46224614F0FCFBD2
:103FF000374B9845CDE9000197DD364B984539DCC4
:10400000A8F500130022002030499046994614F08C
:1040100037FACDE9020100222B4B2046294614F045
:10402000E3FB42464B4614F02BFADDE900238046C1
:1040300089462046294614F0D7FB524604460D46D1
:104040005B463046394614F0CFFB02460B4620460D
:10405000294614F015FA02460B464046494614F02C
:104060000FFA02460B46DDE9020114F009FA05B029
:10407000BDE8F08F9FED127B4FF000088DED027BC5
:10408000DFF85490C7E71149002005B0BDE8F08F74
:10409000D43888BEE9FAA8BDC4B1B4BD9EEE213EB5
:1040A000AD529C804F7E923E9015CB19A001FA3EF6
:1040B0007751C1166CC1563F4C5555555555A53FC6
:1040C000000000000000E73F0000E03F0000F03F7C
:1040D0003233D33F0000E93F0000D23F0000000030
:1040E0002DE9F04FADF51B7D9F4CA49E9F4D54F8DC
:1040F000264007942646D41E85FB0475E417C4EBBE
:10410000A50424EAE4741D460A93631CA3EB83030D
:10411000013D02EBC30306932B460B940395651BED
:10412000F418049008911AD42C4400260027013476
:104130000DF18808DDF8949208E059F8250014F094
:10414000EDFA0135A542E8E8020108D0002DF4DAC5
:10415000013530463946A542E8E80201F6D1079B11
:10416000002BC0F2DF83079B03F1010B0A9B22A9FE
:10417000DB001A4601EB03090093049B0DF5E47A7A
:1041800019460AEBCB0B01EB0208039B002BC0F294
:10419000F582049C4D460026002775E90223F4E8C9
:1041A000020114F021FB02460B463046394614F05A
:1041B00069F9444506460F46EFD1EAE80267DA4559
:1041C00009F10809E1D107990098049C009101F1D7
:1041D0008043013B9B0020441A1F83460EA80244E3
:1041E00003440C920D93009A9AA901EBC203002A92
:1041F00053E9284529DD0DF5E47A0AEBC2080DF1F3
:10420000340900225A4B2046294614F0EDFA14F0E6
:104210009BFD14F083FA0022564B06460F4614F01D
:10422000E3FA02460B462046294614F029F914F019
:104230008BFD78E9022349F8040F3946304614F023
:1042400021F9D04504460D46DBD1DDF81890204613
:1042500029464A4601F050F800224FF07F530446A9
:104260000D4614F0C1FAFCF75FFD0022424B14F03A
:10427000BBFA02460B462046294614F001F90D46CA
:10428000044614F061FD804614F048FA0B460246DD
:104290002946204614F0F4F84B46002B06460F46FC
:1042A00040F3F980009A0EA9013AC9F1180351F8B8
:1042B000225045FA03F101FA03F30EA8EB1A40F875
:1042C0002230C9F11705884443FA05F5002D6DDD4C
:1042D000009B002B08F1010840F36F820E9C002C1C
:1042E00040F01683009B012B40F38F820EAA01231E
:1042F00052F8044F002C00F08382581C0EAAC4F11F
:10430000807442F82340009A824219DD0EAA0EAC56
:1043100052F820106FF07F42511A44F82010009993
:10432000023399420CDD1046009A0EA901EB83037B
:1043300001EB82011A68821A43F8042B8B42F9D1EF
:10434000069B002B1ADD069B012B4FF0010440F069
:104350003C82009B5A1E0EAB0EA953F82230C3F3C9
:10436000160341F822303CE2D4B10100ABAAAA2ADC
:104370000000703E0000704100002040022D15D169
:1043800032463B460020924914F07AF806460F4622
:10439000069A8F49002000F0AFFF02460B463046D8
:1043A000394614F06DF8022506460F460022002318
:1043B0003046394614F080FC002800F03782009A1D
:1043C000079B501E83420FDC02F18043013B0EAA83
:1043D0000D9C02EB8303002253F80419A34242EA26
:1043E0000102F9D1002A67D1079B0EAA013B52F8BE
:1043F0002330002B40F018820C9A012352F8041944
:1044000001330029FAD0009AD31802F1010A9A4523
:1044100009933DDC009B0A990B9A0B4409990AEB1E
:104420000208994622AB08F1804803EBC9098B18B2
:10443000A59A08F1FF3802EB880872AA02EBCA0AB3
:10444000A59A02EB8303009358F8040F14F066F961
:10445000039B002BE9E802014FF000064FF0000734
:1044600011DB049C4D4675E90223F4E8020114F0C7
:10447000BBF902460B463046394614F003F85C455A
:1044800006460F46EFD1009B9845EAE80267DBD16C
:10449000099B0093A7E606D1009B0EAA013B52F8A8
:1044A0002350ED1512E700224A4B14F023FC00289C
:1044B00040F06E81054679E70EA9039551F820304A
:1044C0000699CDF8248018390246009006916BB900
:1044D00000F18043013B0EA800EB830353F804096D
:1044E000013A18390028F9D000920691069A384905
:1044F000002000F001FF009B002B04460D46C0F297
:10450000F781DA0072A901EB020B06920EAA02EB08
:104510008306DFF8C4904FF000080BF1080704365B
:1045200056F8040D14F0FAF822462B4614F05CF904
:104530004B4667E9020142462046294614F054F9E9
:104540000EAB9E4204460D46EAD14AACDDF81C9003
:1045500004944FF0000AB9F1000FC0F22B81DFF88C
:104560007C805D4618A1D1E90001002600270024C7
:1045700003E0544510DCF8E80201F5E8022314F0EA
:1045800033F902460B463046394613F07BFF0134BF
:10459000A14506460F46ECDA049B03EBCA03ABF1D8
:1045A000080BC3E9006770AB9B450AF1010AD2D141
:1045B000A49B049C032B00F28980DFE803F0C58EE6
:1045C0008E1100BFAFF3008000000040FB21F93FD7
:1045D0000000F03F0000E03F0000703E809A0100C4
:1045E000009B002B40F38181069A04EB020ADAE972
:1045F000008902F1080525440DF5987B1AED027B30
:1046000042464B4651EC170B8DED047B13F03AFFFD
:1046100006460F4602460B46DDE9040113F030FF63
:1046200042464B4613F02EFF65E902015D45B04658
:10463000B9466AE90267E1D1009B012B40F355813D
:10464000069BE518D5E9008903F1080B04EB0B0A7A
:1046500015ED027B42464B4651EC170B8DED007B6E
:1046600013F010FF06460F4602460B46DDE9000137
:1046700013F006FF4B46424613F004FF6AE90201BD
:104680004EAB5345B046B94665E90267E0D100201C
:10469000002104EB0B0575E9022313F0F3FEAA4594
:1046A000F9D1039B002B00F00A816268E368089F40
:1046B0002568A4683D6002F1004203F1004301F166
:1046C00000417A60FB60BC6038617961099B03F04E
:1046D00007000DF51B7DBDE8F08F069D08352544CC
:1046E0000020002175E9022313F0CCFEA542F9D188
:1046F000039B002B00F0D280089E024601F100438C
:1047000086E80C000B460246D4E9000113F0B8FE1F
:10471000009B002B0BDD4CAD0124F5E8022313F0C8
:10472000B1FE009B0134A342F7DA039B13B101F100
:1047300000431946089BC3E90201099B03F00700E7
:104740000DF51B7DBDE8F08F069D0835002000218A
:10475000254475E9022313F095FEAC42F9D1039B81
:1047600013B101F100431946089BC3E90001099BFD
:1047700003F007000DF51B7DBDE8F08F0026002734
:10478000EAE80267DA4509F108097FF4FEAC1AE5A8
:10479000009B002B08F10108C8BF02253FF79EAD22
:1047A00032463B460020614913F06AFE0225064668
:1047B0000F46FBE500260027EEE6069B002B27DDD3
:1047C0000024069B012B3FF4C4AD022B09D1009BB2
:1047D0005A1E0EAB0EA953F82230C3F3150341F84D
:1047E0002230022D7FF4E2AD32463B4600204F4995
:1047F00013F046FE06460F46002C3FF4D7ADC7E542
:104800000099013399427FF473AD069B002BD8DCED
:10481000022D7FF4CBAD32463B460020434913F0D6
:104820002FFE06460F46C1E50123ECE53946069FFB
:1048300003957A423046CDF8248000F05DFD0022D9
:104840003B4B04460D4614F055FA002843D0002295
:10485000384B2046294613F0C7FF14F075FA064678
:1048600013F05CFF0022324B13F0BEFF02460B46F2
:104870002046294613F004FE14F066FA00990B4610
:1048800001331A4600933B46183306930B460EA994
:1048900041F82300134641F8236027E6089B0246AF
:1048A000C3E900010B46D4E9000113F0E9FD009BC8
:1048B000002B3FF730AF089BC3E902013DE7D4E985
:1048C0000067D4E90223089DC5E90401C5E9006732
:1048D000C5E90223FAE62946204614F035FA009A83
:1048E0000EA941F8220001E64AAC00200021D8E6DA
:1048F000A49B032B3FF6EAAE01A252F823F000BFBF
:104900001F4900001749000017490000E94800004E
:1049100001200023F2E4002000214AACE8E6002058
:1049200000211CE70A9BDB0000934CE40000F03FF1
:10493000000070410000703E2DE9F04F21F000466C
:10494000B6F1795F85B004460D469046994604DA83
:1049500014F0FAF9002800F0858022462B46204604
:10496000294613F041FF06460F4602460B462046F5
:10497000294613F039FF41A3D3E9002382468B4631
:104980003046394613F030FF3EA3D3E9002313F03D
:1049900077FD32463B4613F027FF3CA3D3E90023C3
:1049A00013F070FD32463B4613F01EFF39A3D3E9E6
:1049B000002313F065FD32463B4613F015FF37A385
:1049C000D3E9002313F05EFD0E9BCDE900019BB3FC
:1049D0000022294B4046494613F006FFDDE900233B
:1049E000CDE902015046594613F0FEFE02460B4641
:1049F000DDE9020113F044FD32463B4613F0F4FEBC
:104A000042464B4613F03CFD19A3D3E9002306466A
:104A10000F465046594613F0E7FE02460B46304615
:104A2000394613F02FFD02460B462046294613F067
:104A300027FD05B0BDE8F08F02460B4630463946EB
:104A400013F0D2FE0AA3D3E9002313F019FD524656
:104A50005B4613F0C9FE22462B4613F013FD05B04A
:104A6000BDE8F08F2046294605B0BDE8F08F00BFB5
:104A7000495555555555C53F0000E03F7CD5CF5AA7
:104A80003AD9E53DEB9C2B8AE6E55A3E7DFEB157CF
:104A9000E31DC73ED561C119A0012A3FA6F8101138
:104AA0001111813F000000002DE9F04FBE4C21F0B4
:104AB000004687B0A64282468B460F46CDE90023CA
:104AC0001BDC14F041F9002837D153461E43109BDC
:104AD0000133334300F0B381109B012B00F0C881F8
:104AE00052465B460020B14913F0A8FF04460D462C
:104AF0002046294607B0BDE8F08FAD4B9E421CDD35
:104B00000029C0F2A98152465B4687A1D1E9000184
:104B100013F0B6FCDDE9002304460D4684A1D1E97B
:104B2000000113F0ADFC9FED847B22462B468DEDFA
:104B3000007B13F0A7FC82468B4652465B465046EC
:104B4000594613F051FE02460B468046894613F043
:104B50004BFE424604460D464B465046594613F01E
:104B600043FE77A3D3E90023CDE90201204629467D
:104B700013F03AFE74A3D3E9002313F083FC22461A
:104B80002B4613F031FE72A3D3E9002313F07AFC15
:104B900022462B4613F028FE6FA3D3E9002313F01F
:104BA00071FC22462B4613F01FFE6DA3D3E90023B0
:104BB00013F068FC22462B4613F016FE6AA3D3E9D5
:104BC000002313F05FFC42464B4613F00DFE68A332
:104BD000D3E90023CDE904012046294613F004FE61
:104BE00065A3D3E9002313F04DFC22462B4613F0B6
:104BF000FBFD63A3D3E9002313F044FC22462B46BC
:104C000013F0F2FD60A3D3E9002313F03BFC22462E
:104C10002B4613F0E9FD5EA3D3E9002313F032FC29
:104C200022462B4613F0E0FD5BA3D3E9002313F0EB
:104C300029FC02460B46DDE9040113F023FCDDE903
:104C4000022313F0D1FDDDE9004522462B4613F087
:104C500019FC42464B4613F0C7FD02460B46204660
:104C6000294613F00FFC4EA3D3E9002304460D465A
:104C7000DDE9020113F0B8FD22462B4613F002FCD9
:104C80000B460246804689465046594613F0FAFBC9
:104C9000474B9E4204460D4600F38E80109B012B2D
:104CA0003BD002460B460020404913F0C7FE0024CB
:104CB00006460F462046294652465B46CDE9006728
:104CC000CDE90201009413F0DBFBDDE900AB024605
:104CD0000B464046494613F0D3FB52465B4613F061
:104CE00083FD524604460D465B46DDE9020113F0A2
:104CF0007BFD00222F4B13F0C5FB02460B462046DE
:104D0000294613F0BFFB32463B4613F06DFD524679
:104D10005B4613F0B7FB04460D462046294607B014
:104D2000BDE8F08FAFF30080182D4454FB21E93F1C
:104D3000075C143326A6813C000000000000000040
:104D4000D47ABF74702AFB3EE9A7F0320FB8123F45
:104D500068108D1AF726303F1583E0FEC8DB573FF9
:104D600093846EE9E326823FFE41B31BBAA1AB3FB9
:104D7000735360DBCB75F3BEA69237A0887E143FD9
:104D80000165F2F2D844433F280356C9226D6D3FB6
:104D900037D60684F464963F7AFE10111111C13F94
:104DA000635555555555D53FFFFF2F3E0000F0BFC9
:104DB0002794E53F0000F03F109813F0AFFC224627
:104DC000CDE900012B462046294613F00DFDDDE913
:104DD0000023CDE902012046294613F053FB024689
:104DE0000B46DDE9020113F029FE42464B4613F063
:104DF00047FB02460B465046594613F041FB02461C
:104E00000B4613F03FFB02460B46DDE9000113F0B1
:104E100037FB0446B81700F00200C0F101000D4650
:104E200013F07CFC02460B462046294613F0DCFCBE
:104E300004460D462046294607B0BDE8F08F50468F
:104E4000594611F0CDFB02460B4600200A4913F0EB
:104E5000F5FD04460D4660E7DDE9004501F100413E
:104E6000224605F1004382468B46CDE900234AE6FF
:104E700054465D4651E700BF0000F03F00000000CF
:104E80002DE9F04FD24A21F00043934285B082468B
:104E90008B460C462DD9CF4A93421AD8002C80F26B
:104EA0001681B5A3D3E900235046594613F0EAFA18
:104EB0000022002313F00AFFC0B9B1A3D3E90023F5
:104EC0005046594613F090FC02460B460020C2495A
:104ED00008E1C24A934240F2D0800346C1F3130274
:104EE000134340F0F481002980F2C4800020BC49C3
:104EF000C0E0BC4A934200F22981BB4A934240F28F
:104F0000DE80002301930022B84B5046594613F02F
:104F10006BFC06460F4602460B465046594613F0B8
:104F200063FC99A3D3E9002304460D4613F05CFC0F
:104F300097A3D3E9002313F0A5FA22462B4613F0DA
:104F400053FC95A3D3E9002313F09AFA22462B468B
:104F500013F04AFC92A3D3E9002313F093FA2246FC
:104F60002B4613F041FC90A3D3E9002313F088FAF9
:104F700022462B4613F038FC00229D4B13F082FA98
:104F80008046894602460B463046394613F02CFCD3
:104F900002460B460020974913F072FA0646024675
:104FA0000B460F464046494613F06AFA32468046A1
:104FB00089463B465046594613F016FC02460B46BE
:104FC00000208D4913F05CFA02460B4640464946E4
:104FD00013F034FD22462B4613F006FC019E0246D8
:104FE0000B46002E38D0DDE9026732463B4613F00F
:104FF00047FA52465B4613F0F7FB32463B4613F046
:105000003FFA2B46224613F03BFA019B013306463A
:105010000F4600F00F81019B012B00F0F180019BF6
:105020000133392B39D8019B132B40F31281019C9A
:10503000C4F57F75033500222B0513F023FA0246D1
:105040000B465046594613F01BFA0022684B13F0EA
:1050500019FA01EB04510DE05046594613F0C4FB18
:1050600022462B4613F00CFA02460B465046594690
:1050700013F006FA05B0BDE8F08F4DA3D3E9002385
:1050800013F042FE00283FF409AF4BA3D3E90023FD
:105090001046194613F0A8FBECE752465B4613F0A6
:1050A000EFF902460B460020514913F0E9F9019A45
:1050B0004F4B01EB0251002213F0E2F9DAE73EA375
:1050C000D3E9002313F0DEF902460B46CAE72CA30E
:1050D000D3E900235046594613F086FB0B4643495B
:1050E0000246002013F0CEF913F02EFE019013F0CB
:1050F00015FB33A3D3E9002306460F4613F074FBD8
:1051000002460B465046594613F0BAF92EA3D3E98E
:105110000023804689463046394613F065FB064633
:105120000F4632463B464046494613F0A9F902462F
:105130000B4682468B464046494613F0A1F932465B
:105140003B4613F09DF9CDE90201DCE62B4A934280
:1051500000F2958000291AA3D3E90023C0F2AC80A5
:1051600013F08EF9012380468946019316A7D7E9EB
:105170000067D6E7AFF3008059F3F8C21F6EA501B0
:10518000FE822B654715F73F2DC3096EB7FD8ABE1A
:105190003952E686CACFD03EB7DBAA9E19CE143F5D
:1051A0008555FE19A0015A3FF41011111111A13FAC
:1051B000EF39FAFE422E86409C7500883CE4377E2B
:1051C0000000E0FE422EE63F763C7935EF39EA3DBD
:1051D00079684340412E86400000E0BFFFFFEF7F2B
:1051E0000000F0BF422ED63FFFFF8F3C0000E03FA3
:1051F0000000F03F0000084000001840B1A2F03F5E
:105200000022394B5046594613F060FD002844D027
:10521000504659460022354B13F034F902460B46EE
:105220003046394613F02CF900224FF0404313F07A
:10523000DBFA1FE702460B465046594613F020F9A9
:1052400000222A4B13F0D0FA0022284B13F018F951
:1052500010E7019C4FF400132341C3F17F575246DE
:105260005B4613F00DF9002607F5401702460B4682
:105270003046394613F004F901EB0451FAE616A35F
:10528000D3E9002313F0B0FA002C02460B464FF08E
:105290000000FFF61CAE154924E732463B46504657
:1052A000594613F0EDF802460B4613F0EBF80022D6
:1052B0000F4B13F0E7F8DDE613F0E4F84FF0FF339F
:1052C00080468946019306A7D7E9006729E7024689
:1052D0000B4613F0D7F8CDE6FE822B654715F73F56
:1052E000763C7935EF39EABD0000D0BF0000E03FE1
:1052F0000000F03F00000000F8B5C1F30A56044674
:105300000D460B4617460EBB21F00043034386466D
:1053100025D00022344B13F067FA344A97420446F2
:105320000D460B462ADBC1F30A56363E3E4440F298
:10533000FE72964228DC002E12DD23F0FF4323F498
:10534000E00343EA065520462946F8BD40F2FF72C5
:105350009642EBD102460B4613F094F8F8BDF8BD27
:1053600016F1350F1DDA4CF250339F4222462B4680
:1053700025DC19A1D1E9000112F0F4FF16A3D3E94D
:10538000002313F031FAF8BD22462B4614A1D1E9CF
:10539000000112F0E7FF12A3D3E9002313F024FA6F
:1053A000F8BD23F0FF4323F4E003363643EA065505
:1053B0002046294600220E4B13F016FAF8BD08A12C
:1053C000D1E9000112F0CEFF05A3D3E9002313F0C9
:1053D0000BFAF8BDAFF3008059F3F8C21F6EA501B8
:1053E0009C7500883CE4377E00005043B03CFFFFD2
:1053F0000000903C10B5054C237833B9044B13B131
:105400000448AFF300800123237010BD1005002075
:10541000000000002CB301000C4B43B10C480D49B7
:1054200010B5AFF300800C48036823B910BD0A48DB
:10543000036833B97047094B002BF7D0BDE8104023
:105440001847064B002BF5D0184700BF000000009E
:105450002CB3010014050020100200200000000001
:10546000154B002B08BF134B9D46A3F5803A002136
:105470008B460F461348144A121A08F02DF90F4BA9
:10548000002B00D098470E4B002B00D098470020EF
:10549000002104000D000D48002802D00C48AFF395
:1054A000008012F095FF2000290005F049F912F064
:1054B0007BFF00BF00000800000002200000000089
:1054C0000000000000040020A00C002000000000EC
:1054D0000000000070B504460E4600F0D1F888B117
:1054E00003681B6B05469847082C0CD0A4F10903F0
:1054F000012B14D93246214610230D20BDE87040FF
:1055000004F0DEB870BD2B6828469B6A98470228D5
:10551000F0DC2B6828465B6A04219847EAE72B6891
:1055200028469B6A98470528E4DC2B6828465B6A76
:1055300008219847DEE700BF30B52DED028B83B020
:10554000054600F09DF8044640B103681B6B984780
:10555000032D50D8DFE805F0373F47080190019848
:1055600003B0BDEC028B30BD20460BF0B1FC07EE62
:10557000900A2046F8EEE78A0BF0B8FC07EE900A96
:105580002046B8EEE78A0BF0BFFC68EE087A07EE1B
:10559000100AE8EEA87AB8EEC77AE7EE077AF5EED9
:1055A000407AF1EE10FAB1EEE78A03D517EE900AD1
:1055B00011F062FDFDEEC87ACDED017A019803B0DD
:1055C000BDEC028B30BD204603B0BDEC028BBDE8C4
:1055D00030400BF07DBC204603B0BDEC028BBDE833
:1055E00030400BF083BC204603B0BDEC028BBDE81D
:1055F00030400BF089BC00230193B0E738B5054675
:1056000000F03EF858B103681B6B0446984745B15B
:10561000012D04D12046BDE83840FBF79DB800209D
:1056200038BD2046BDE83840FBF776B810B50446D3
:1056300000F026F828B1036821465B6ABDE81040F7
:10564000184710BD0048704716FCFFFF704700BFA9
:1056500010B5034B036004460BF036FA204610BD2C
:105660001CA8010010B5054B036004460BF02CFA92
:10567000204613F0FBFD204610BD00BF1CA8010012
:105680002DE9F043C04C236885B01BB1986805B084
:10569000BDE8F0834FF0FF31012001F0FFFCC0B204
:1056A00004F000FB002800F0ED800C2013F0E0FD7A
:1056B00003210646512001F0F1FCDFF8FCE2B34B78
:1056C000054605F00F07C5F3031815F4807518BFDC
:1056D0007346AF48394642460AF096FB2A1C18BF6B
:1056E00001223946434630460DF0E0FB0023A9482D
:1056F000B3600AF089FB4FF0FF31032001F0CEFCCC
:10570000C0B204F0CFFA4FF0FF310546022001F09D
:10571000C5FCC0B204F0C6FA002D00F09A80002843
:1057200000F097800146284604F0ACF807460028B0
:1057300000F0A4804FF0FF31462001F0AFFC32288A
:1057400080462BD028DD382869D068283FD14FF01B
:10575000FF31012001F0A2FCC0B204F0A3FA81469F
:105760005C2013F085FD0523054601934A46CDF8DC
:105770000080394633460CF06BFB2846B060036866
:10578000DB6A9847B06803681B6B984782480AF049
:105790003BFB2660B0687AE7302818D14FF0FF3124
:1057A000012001F07BFCC0B204F07CFA814650205D
:1057B00013F05EFD1FFA88F1054605234A46009165
:1057C0000193394633460CF015F92846D6E73A6876
:1057D0000125002301950095D2F82480B3600F22A3
:1057E0000DF10F0332213846C047002856D14FF043
:1057F0003208414669480AF007FB4FF0FF310120AB
:1058000001F04CFCC0B204F04DFA8146502013F078
:105810002FFD052305464A46CDF80080D0E74FF01E
:10582000FF31012001F03AFCC0B204F03BFA81469E
:10583000502013F01DFD052305464A46CDF8008093
:105840003946019333460CF0DFF9554B2B6028465F
:1058500094E754480AF0D8FA4FF0FF31192001F0CC
:105860001DFCC0B204F01EFA4FF0FF3105461820AF
:1058700001F014FCC0B204F015FA53E74A480AF0EC
:10588000C3FA86E74FF0FF31032001F007FCC0B2F6
:1058900004F008FA00287FF408AFF8E63B680195A9
:1058A0000095D3F824800F220DF10F0330213846E4
:1058B000C04718B94FF0300841469BE73B68019557
:1058C0000095D3F824800D220DF10F0338213846BE
:1058D000C047C0B9382131480AF096FA4FF0FF317D
:1058E000284601F0DBFBC0B204F0DCF98046502012
:1058F00013F0BEFC4FF0050E3823054642463946EC
:105900008DE808409EE73A6801950095D2F824801A
:105910000DF10F03752268213846C047E0B96821B0
:105920001E480AF071FA4FF0FF31284601F0B6FB2D
:10593000C0B204F0B7F980465C2013F099FC4FF038
:10594000050E682305468DE8084042463946334631
:105950000CF07EFA284611E714480AF055FAB068B0
:1059600000287FF40CAF4FF0FF31032001F096FBCD
:10597000C0B204F097F918B10D480AF045FA08E7EB
:105980000C480AF041FA04E72C050020109B0100A6
:10599000189B0100389B0100D09B0100F49B010083
:1059A000D09A0100489B01005C9B0100E09B010034
:1059B000749B0100B09B0100089B010008B501F039
:1059C0009FFCFBF76DFCBDE8084001F0FDB900BF8E
:1059D00008B501F095FCFBF7D3FCBDE8084001F0E9
:1059E000F3B900BF08B501F08BFC10F06FFEBDE805
:1059F000084001F0E9B900BF08B501F081FC11F0E1
:105A000077FABDE8084001F0DFB900BF08B501F042
:105A100077FCFBF755FCBDE8084001F0D5B900BFA5
:105A200008B501F06DFC11F08FF8BDE8084001F0F9
:105A3000CBB900BF08B501F063FCFAF7ADFEBDE8D5
:105A4000084001F0C1B900BF08B501F059FC10F0E1
:105A5000CFFFBDE8084001F0B7B900BF70B5049EA4
:105A600096420C4628DB15466BB1002A00EB02017A
:105A700007DD2046A21811F8013D00F8013B9042D5
:105A8000F9D1002070BD042A0FD0022A02D110F0F3
:105A9000010306D001462A46204606F02DFC0020D0
:105AA00070BD02880A80184670BD10F00303F1D162
:105AB00002680A60184670BD0846002107F00CFE17
:105AC0004FF0FF3070BD00BF0830704740B1002973
:105AD00005DB4368994202DA0844007A70470020E7
